{
  "contractName": "Market",
  "abi": [
    {
      "inputs": [
        {
          "internalType": "contract ERC20",
          "name": "_token",
          "type": "address"
        },
        {
          "internalType": "uint256",
          "name": "_baseBorrowRate",
          "type": "uint256"
        }
      ],
      "payable": false,
      "stateMutability": "nonpayable",
      "type": "constructor"
    },
    {
      "anonymous": false,
      "inputs": [
        {
          "indexed": false,
          "internalType": "address",
          "name": "user",
          "type": "address"
        },
        {
          "indexed": false,
          "internalType": "uint256",
          "name": "amount",
          "type": "uint256"
        }
      ],
      "name": "Borrow",
      "type": "event"
    },
    {
      "anonymous": false,
      "inputs": [
        {
          "indexed": false,
          "internalType": "address",
          "name": "user",
          "type": "address"
        },
        {
          "indexed": false,
          "internalType": "uint256",
          "name": "amount",
          "type": "uint256"
        }
      ],
      "name": "PayBorrow",
      "type": "event"
    },
    {
      "anonymous": false,
      "inputs": [
        {
          "indexed": false,
          "internalType": "address",
          "name": "user",
          "type": "address"
        },
        {
          "indexed": false,
          "internalType": "uint256",
          "name": "amount",
          "type": "uint256"
        }
      ],
      "name": "Redeem",
      "type": "event"
    },
    {
      "anonymous": false,
      "inputs": [
        {
          "indexed": false,
          "internalType": "address",
          "name": "user",
          "type": "address"
        },
        {
          "indexed": false,
          "internalType": "uint256",
          "name": "amount",
          "type": "uint256"
        }
      ],
      "name": "Supply",
      "type": "event"
    },
    {
      "constant": true,
      "inputs": [],
      "name": "FACTOR",
      "outputs": [
        {
          "internalType": "uint256",
          "name": "",
          "type": "uint256"
        }
      ],
      "payable": false,
      "stateMutability": "view",
      "type": "function"
    },
    {
      "constant": true,
      "inputs": [],
      "name": "accrualBlockNumber",
      "outputs": [
        {
          "internalType": "uint256",
          "name": "",
          "type": "uint256"
        }
      ],
      "payable": false,
      "stateMutability": "view",
      "type": "function"
    },
    {
      "constant": true,
      "inputs": [],
      "name": "baseBorrowRate",
      "outputs": [
        {
          "internalType": "uint256",
          "name": "",
          "type": "uint256"
        }
      ],
      "payable": false,
      "stateMutability": "view",
      "type": "function"
    },
    {
      "constant": true,
      "inputs": [],
      "name": "borrowIndex",
      "outputs": [
        {
          "internalType": "uint256",
          "name": "",
          "type": "uint256"
        }
      ],
      "payable": false,
      "stateMutability": "view",
      "type": "function"
    },
    {
      "constant": true,
      "inputs": [],
      "name": "controller",
      "outputs": [
        {
          "internalType": "contract Controller",
          "name": "",
          "type": "address"
        }
      ],
      "payable": false,
      "stateMutability": "view",
      "type": "function"
    },
    {
      "constant": true,
      "inputs": [],
      "name": "owner",
      "outputs": [
        {
          "internalType": "address",
          "name": "",
          "type": "address"
        }
      ],
      "payable": false,
      "stateMutability": "view",
      "type": "function"
    },
    {
      "constant": true,
      "inputs": [],
      "name": "supplyIndex",
      "outputs": [
        {
          "internalType": "uint256",
          "name": "",
          "type": "uint256"
        }
      ],
      "payable": false,
      "stateMutability": "view",
      "type": "function"
    },
    {
      "constant": true,
      "inputs": [],
      "name": "token",
      "outputs": [
        {
          "internalType": "contract ERC20",
          "name": "",
          "type": "address"
        }
      ],
      "payable": false,
      "stateMutability": "view",
      "type": "function"
    },
    {
      "constant": true,
      "inputs": [],
      "name": "totalBorrows",
      "outputs": [
        {
          "internalType": "uint256",
          "name": "",
          "type": "uint256"
        }
      ],
      "payable": false,
      "stateMutability": "view",
      "type": "function"
    },
    {
      "constant": true,
      "inputs": [],
      "name": "totalSupply",
      "outputs": [
        {
          "internalType": "uint256",
          "name": "",
          "type": "uint256"
        }
      ],
      "payable": false,
      "stateMutability": "view",
      "type": "function"
    },
    {
      "constant": true,
      "inputs": [],
      "name": "getCash",
      "outputs": [
        {
          "internalType": "uint256",
          "name": "",
          "type": "uint256"
        }
      ],
      "payable": false,
      "stateMutability": "view",
      "type": "function"
    },
    {
      "constant": true,
      "inputs": [
        {
          "internalType": "uint256",
          "name": "cash",
          "type": "uint256"
        },
        {
          "internalType": "uint256",
          "name": "borrowed",
          "type": "uint256"
        },
        {
          "internalType": "uint256",
          "name": "reserves",
          "type": "uint256"
        }
      ],
      "name": "utilizationRate",
      "outputs": [
        {
          "internalType": "uint256",
          "name": "",
          "type": "uint256"
        }
      ],
      "payable": false,
      "stateMutability": "pure",
      "type": "function"
    },
    {
      "constant": true,
      "inputs": [
        {
          "internalType": "uint256",
          "name": "cash",
          "type": "uint256"
        },
        {
          "internalType": "uint256",
          "name": "borrowed",
          "type": "uint256"
        },
        {
          "internalType": "uint256",
          "name": "reserves",
          "type": "uint256"
        }
      ],
      "name": "getBorrowRate",
      "outputs": [
        {
          "internalType": "uint256",
          "name": "",
          "type": "uint256"
        }
      ],
      "payable": false,
      "stateMutability": "view",
      "type": "function"
    },
    {
      "constant": true,
      "inputs": [
        {
          "internalType": "uint256",
          "name": "cash",
          "type": "uint256"
        },
        {
          "internalType": "uint256",
          "name": "borrowed",
          "type": "uint256"
        },
        {
          "internalType": "uint256",
          "name": "reserves",
          "type": "uint256"
        }
      ],
      "name": "getSupplyRate",
      "outputs": [
        {
          "internalType": "uint256",
          "name": "",
          "type": "uint256"
        }
      ],
      "payable": false,
      "stateMutability": "view",
      "type": "function"
    },
    {
      "constant": true,
      "inputs": [],
      "name": "borrowRatePerBlock",
      "outputs": [
        {
          "internalType": "uint256",
          "name": "",
          "type": "uint256"
        }
      ],
      "payable": false,
      "stateMutability": "view",
      "type": "function"
    },
    {
      "constant": true,
      "inputs": [],
      "name": "supplyRatePerBlock",
      "outputs": [
        {
          "internalType": "uint256",
          "name": "",
          "type": "uint256"
        }
      ],
      "payable": false,
      "stateMutability": "view",
      "type": "function"
    },
    {
      "constant": true,
      "inputs": [
        {
          "internalType": "address",
          "name": "user",
          "type": "address"
        }
      ],
      "name": "supplyOf",
      "outputs": [
        {
          "internalType": "uint256",
          "name": "",
          "type": "uint256"
        }
      ],
      "payable": false,
      "stateMutability": "view",
      "type": "function"
    },
    {
      "constant": true,
      "inputs": [
        {
          "internalType": "address",
          "name": "user",
          "type": "address"
        }
      ],
      "name": "borrowBy",
      "outputs": [
        {
          "internalType": "uint256",
          "name": "",
          "type": "uint256"
        }
      ],
      "payable": false,
      "stateMutability": "view",
      "type": "function"
    },
    {
      "constant": true,
      "inputs": [
        {
          "internalType": "address",
          "name": "user",
          "type": "address"
        }
      ],
      "name": "updatedBorrowBy",
      "outputs": [
        {
          "internalType": "uint256",
          "name": "",
          "type": "uint256"
        }
      ],
      "payable": false,
      "stateMutability": "view",
      "type": "function"
    },
    {
      "constant": true,
      "inputs": [
        {
          "internalType": "address",
          "name": "user",
          "type": "address"
        }
      ],
      "name": "updatedSupplyOf",
      "outputs": [
        {
          "internalType": "uint256",
          "name": "",
          "type": "uint256"
        }
      ],
      "payable": false,
      "stateMutability": "view",
      "type": "function"
    },
    {
      "constant": false,
      "inputs": [
        {
          "internalType": "contract Controller",
          "name": "_controller",
          "type": "address"
        }
      ],
      "name": "setController",
      "outputs": [],
      "payable": false,
      "stateMutability": "nonpayable",
      "type": "function"
    },
    {
      "constant": false,
      "inputs": [
        {
          "internalType": "uint256",
          "name": "amount",
          "type": "uint256"
        }
      ],
      "name": "supply",
      "outputs": [],
      "payable": false,
      "stateMutability": "nonpayable",
      "type": "function"
    },
    {
      "constant": false,
      "inputs": [
        {
          "internalType": "uint256",
          "name": "amount",
          "type": "uint256"
        }
      ],
      "name": "redeem",
      "outputs": [],
      "payable": false,
      "stateMutability": "nonpayable",
      "type": "function"
    },
    {
      "constant": false,
      "inputs": [
        {
          "internalType": "uint256",
          "name": "amount",
          "type": "uint256"
        }
      ],
      "name": "borrow",
      "outputs": [],
      "payable": false,
      "stateMutability": "nonpayable",
      "type": "function"
    },
    {
      "constant": false,
      "inputs": [],
      "name": "accrueInterest",
      "outputs": [],
      "payable": false,
      "stateMutability": "nonpayable",
      "type": "function"
    },
    {
      "constant": true,
      "inputs": [],
      "name": "getUpdatedTotalBorrows",
      "outputs": [
        {
          "internalType": "uint256",
          "name": "",
          "type": "uint256"
        }
      ],
      "payable": false,
      "stateMutability": "view",
      "type": "function"
    },
    {
      "constant": true,
      "inputs": [],
      "name": "getUpdatedTotalSupply",
      "outputs": [
        {
          "internalType": "uint256",
          "name": "",
          "type": "uint256"
        }
      ],
      "payable": false,
      "stateMutability": "view",
      "type": "function"
    },
    {
      "constant": false,
      "inputs": [
        {
          "internalType": "uint256",
          "name": "amount",
          "type": "uint256"
        }
      ],
      "name": "payBorrow",
      "outputs": [],
      "payable": false,
      "stateMutability": "nonpayable",
      "type": "function"
    },
    {
      "constant": false,
      "inputs": [
        {
          "internalType": "address",
          "name": "borrower",
          "type": "address"
        },
        {
          "internalType": "uint256",
          "name": "amount",
          "type": "uint256"
        },
        {
          "internalType": "contract MarketInterface",
          "name": "collateralMarket",
          "type": "address"
        }
      ],
      "name": "liquidateBorrow",
      "outputs": [],
      "payable": false,
      "stateMutability": "nonpayable",
      "type": "function"
    },
    {
      "constant": false,
      "inputs": [
        {
          "internalType": "address",
          "name": "sender",
          "type": "address"
        },
        {
          "internalType": "address",
          "name": "receiver",
          "type": "address"
        },
        {
          "internalType": "uint256",
          "name": "amount",
          "type": "uint256"
        }
      ],
      "name": "transferTo",
      "outputs": [],
      "payable": false,
      "stateMutability": "nonpayable",
      "type": "function"
    }
  ],
  "bytecode": "0x60806040523480156200001157600080fd5b506040516200273638038062002736833981810160405260408110156200003757600080fd5b81019080805190602001909291908051906020019092919050505060008273ffffffffffffffffffffffffffffffffffffffff166318160ddd6040518163ffffffff1660e01b815260040160206040518083038186803b1580156200009b57600080fd5b505afa158015620000b0573d6000803e3d6000fd5b505050506040513d6020811015620000c757600080fd5b81019080805190602001909291905050501015620000e457600080fd5b336000806101000a81548173ffffffffffffffffffffffffffffffffffffffff021916908373ffffffffffffffffffffffffffffffffffffffff16021790555081600160006101000a81548173ffffffffffffffffffffffffffffffffffffffff021916908373ffffffffffffffffffffffffffffffffffffffff160217905550670de0b6b3a7640000600681905550670de0b6b3a76400006004819055508060088190555043600581905550505061259380620001a36000396000f3fe608060405234801561001057600080fd5b50600436106101da5760003560e01c8063a5f2a15211610104578063c5ebeaec116100a2578063f5e3c46211610071578063f5e3c46214610749578063f77c4791146107b7578063f8f9da2814610801578063fc0c546a1461081f576101da565b8063c5ebeaec14610667578063db006a7514610695578063e681dc71146106c3578063f5d1b7e81461071b576101da565b8063ad8feadb116100de578063ad8feadb146105b5578063ae9d70b01461060d578063bf3866821461062b578063c2b170cb14610649576101da565b8063a5f2a1521461051f578063a6afed951461058d578063aa5af0fd14610597576101da565b80634a3196471161017c57806378f1dc031161014b57806378f1dc03146104555780638da5cb5b1461047357806392eefe9b146104bd57806398f1bc1214610501576101da565b80634a3196471461033357806362400e4c146103895780636c540baf146103e15780636e71e2d8146103ff576101da565b806335403023116101b857806335403023146102ab57806335815b95146102d95780633b1d21a2146102f757806347bd371814610315576101da565b806315f24053146101df57806318160ddd146102355780632aad6aa814610253575b600080fd5b61021f600480360360608110156101f557600080fd5b81019080803590602001909291908035906020019092919080359060200190929190505050610869565b6040518082815260200191505060405180910390f35b61023d610893565b6040518082815260200191505060405180910390f35b6102956004803603602081101561026957600080fd5b81019080803573ffffffffffffffffffffffffffffffffffffffff169060200190929190505050610899565b6040518082815260200191505060405180910390f35b6102d7600480360360208110156102c157600080fd5b8101908080359060200190929190505050610927565b005b6102e161099f565b6040518082815260200191505060405180910390f35b6102ff6109ab565b6040518082815260200191505060405180910390f35b61031d610a8c565b6040518082815260200191505060405180910390f35b6103736004803603606081101561034957600080fd5b81019080803590602001909291908035906020019092919080359060200190929190505050610a92565b6040518082815260200191505060405180910390f35b6103cb6004803603602081101561039f57600080fd5b81019080803573ffffffffffffffffffffffffffffffffffffffff169060200190929190505050610aca565b6040518082815260200191505060405180910390f35b6103e9610b16565b6040518082815260200191505060405180910390f35b61043f6004803603606081101561041557600080fd5b81019080803590602001909291908035906020019092919080359060200190929190505050610b1c565b6040518082815260200191505060405180910390f35b61045d610b51565b6040518082815260200191505060405180910390f35b61047b610b6f565b604051808273ffffffffffffffffffffffffffffffffffffffff1673ffffffffffffffffffffffffffffffffffffffff16815260200191505060405180910390f35b6104ff600480360360208110156104d357600080fd5b81019080803573ffffffffffffffffffffffffffffffffffffffff169060200190929190505050610b94565b005b610509610c31565b6040518082815260200191505060405180910390f35b61058b6004803603606081101561053557600080fd5b81019080803573ffffffffffffffffffffffffffffffffffffffff169060200190929190803573ffffffffffffffffffffffffffffffffffffffff16906020019092919080359060200190929190505050610c37565b005b610595610cae565b005b61059f610cf7565b6040518082815260200191505060405180910390f35b6105f7600480360360208110156105cb57600080fd5b81019080803573ffffffffffffffffffffffffffffffffffffffff169060200190929190505050610cfd565b6040518082815260200191505060405180910390f35b610615610d49565b6040518082815260200191505060405180910390f35b610633610d65565b6040518082815260200191505060405180910390f35b610651610d6b565b6040518082815260200191505060405180910390f35b6106936004803603602081101561067d57600080fd5b8101908080359060200190929190505050610d89565b005b6106c1600480360360208110156106ab57600080fd5b8101908080359060200190929190505050611325565b005b610705600480360360208110156106d957600080fd5b81019080803573ffffffffffffffffffffffffffffffffffffffff16906020019092919050505061168e565b6040518082815260200191505060405180910390f35b6107476004803603602081101561073157600080fd5b810190808035906020019092919050505061171c565b005b6107b56004803603606081101561075f57600080fd5b81019080803573ffffffffffffffffffffffffffffffffffffffff16906020019092919080359060200190929190803573ffffffffffffffffffffffffffffffffffffffff169060200190929190505050611817565b005b6107bf611b98565b604051808273ffffffffffffffffffffffffffffffffffffffff1673ffffffffffffffffffffffffffffffffffffffff16815260200191505060405180910390f35b610809611bbe565b6040518082815260200191505060405180910390f35b610827611bda565b604051808273ffffffffffffffffffffffffffffffffffffffff1673ffffffffffffffffffffffffffffffffffffffff16815260200191505060405180910390f35b600080610877858585610b1c565b90506008546103e8828161088757fe5b04019150509392505050565b60035481565b600080600a60008473ffffffffffffffffffffffffffffffffffffffff1673ffffffffffffffffffffffffffffffffffffffff16815260200190815260200160002090506000816000015414156108f4576000915050610922565b60008061090043611c00565b80925081935050508260010154818460000154028161091b57fe5b0493505050505b919050565b6109313382611c92565b7fadacf827efe383160192c092d8658471945c074229a9746679b5e2b74adff1913382604051808373ffffffffffffffffffffffffffffffffffffffff1673ffffffffffffffffffffffffffffffffffffffff1681526020018281526020019250505060405180910390a150565b670de0b6b3a764000081565b6000600160009054906101000a900473ffffffffffffffffffffffffffffffffffffffff1673ffffffffffffffffffffffffffffffffffffffff166370a08231306040518263ffffffff1660e01b8152600401808273ffffffffffffffffffffffffffffffffffffffff1673ffffffffffffffffffffffffffffffffffffffff16815260200191505060206040518083038186803b158015610a4c57600080fd5b505afa158015610a60573d6000803e3d6000fd5b505050506040513d6020811015610a7657600080fd5b8101908080519060200190929190505050905090565b60075481565b600080610aa0858585610869565b9050670de0b6b3a764000081610ab7878787610b1c565b0281610abf57fe5b049150509392505050565b6000600960008373ffffffffffffffffffffffffffffffffffffffff1673ffffffffffffffffffffffffffffffffffffffff168152602001908152602001600020600001549050919050565b60055481565b600080831415610b2f5760009050610b4a565b8183850103670de0b6b3a7640000840281610b4657fe5b0490505b9392505050565b6000806000610b5f43611c00565b8092508193505050819250505090565b6000809054906101000a900473ffffffffffffffffffffffffffffffffffffffff1681565b6000809054906101000a900473ffffffffffffffffffffffffffffffffffffffff1673ffffffffffffffffffffffffffffffffffffffff163373ffffffffffffffffffffffffffffffffffffffff1614610bed57600080fd5b80600260006101000a81548173ffffffffffffffffffffffffffffffffffffffff021916908373ffffffffffffffffffffffffffffffffffffffff16021790555050565b60045481565b600260009054906101000a900473ffffffffffffffffffffffffffffffffffffffff1673ffffffffffffffffffffffffffffffffffffffff163373ffffffffffffffffffffffffffffffffffffffff1614610c9157600080fd5b60008111610c9e57600080fd5b610ca9838383611f26565b505050565b6000439050610cbc81611c00565b6007600060066000849190505583919050555050610cd981612240565b60036000600460008491905055839190505550508060058190555050565b60065481565b6000600a60008373ffffffffffffffffffffffffffffffffffffffff1673ffffffffffffffffffffffffffffffffffffffff168152602001908152602001600020600001549050919050565b6000610d60610d566109ab565b6007546000610a92565b905090565b60085481565b6000806000610d7943612240565b8092508193505050819250505090565b80600160009054906101000a900473ffffffffffffffffffffffffffffffffffffffff1673ffffffffffffffffffffffffffffffffffffffff166370a08231306040518263ffffffff1660e01b8152600401808273ffffffffffffffffffffffffffffffffffffffff1673ffffffffffffffffffffffffffffffffffffffff16815260200191505060206040518083038186803b158015610e2957600080fd5b505afa158015610e3d573d6000803e3d6000fd5b505050506040513d6020811015610e5357600080fd5b81019080805190602001909291905050501015610e6f57600080fd5b610e77610cae565b6000600a60003373ffffffffffffffffffffffffffffffffffffffff1673ffffffffffffffffffffffffffffffffffffffff1681526020019081526020016000209050600081600001541115610f065760008160000154826001015460065484600001540281610ee357fe5b040390508082600001600082825401925050819055506006548260010181905550505b600282600260009054906101000a900473ffffffffffffffffffffffffffffffffffffffff1673ffffffffffffffffffffffffffffffffffffffff1663cfed246b306040518263ffffffff1660e01b8152600401808273ffffffffffffffffffffffffffffffffffffffff1673ffffffffffffffffffffffffffffffffffffffff16815260200191505060206040518083038186803b158015610fa857600080fd5b505afa158015610fbc573d6000803e3d6000fd5b505050506040513d6020811015610fd257600080fd5b81019080805190602001909291905050500202600260009054906101000a900473ffffffffffffffffffffffffffffffffffffffff1673ffffffffffffffffffffffffffffffffffffffff16635ec88c79336040518263ffffffff1660e01b8152600401808273ffffffffffffffffffffffffffffffffffffffff1673ffffffffffffffffffffffffffffffffffffffff16815260200191505060206040518083038186803b15801561108457600080fd5b505afa158015611098573d6000803e3d6000fd5b505050506040513d60208110156110ae57600080fd5b81019080805190602001909291905050501015611133576040517f08c379a000000000000000000000000000000000000000000000000000000000815260040180806020018281038252601c8152602001807f4e6f7420656e6f756768206163636f756e74206c69717569646974790000000081525060200191505060405180910390fd5b600160009054906101000a900473ffffffffffffffffffffffffffffffffffffffff1673ffffffffffffffffffffffffffffffffffffffff1663a9059cbb33846040518363ffffffff1660e01b8152600401808373ffffffffffffffffffffffffffffffffffffffff1673ffffffffffffffffffffffffffffffffffffffff16815260200182815260200192505050602060405180830381600087803b1580156111dc57600080fd5b505af11580156111f0573d6000803e3d6000fd5b505050506040513d602081101561120657600080fd5b8101908080519060200190929190505050611289576040517f08c379a000000000000000000000000000000000000000000000000000000000815260040180806020018281038252601a8152602001807f4e6f20656e6f75676820746f6b656e7320746f20626f72726f7700000000000081525060200191505060405180910390fd5b8181600001600082825401925050819055506006548160010181905550816007600082825401925050819055507fcbc04eca7e9da35cb1393a6135a199ca52e450d5e9251cbd99f7847d33a367503383604051808373ffffffffffffffffffffffffffffffffffffffff1673ffffffffffffffffffffffffffffffffffffffff1681526020018281526020019250505060405180910390a15050565b611330333383611f26565b600080600260009054906101000a900473ffffffffffffffffffffffffffffffffffffffff1673ffffffffffffffffffffffffffffffffffffffff16633baadca0336040518263ffffffff1660e01b8152600401808273ffffffffffffffffffffffffffffffffffffffff1673ffffffffffffffffffffffffffffffffffffffff168152602001915050604080518083038186803b1580156113d157600080fd5b505afa1580156113e5573d6000803e3d6000fd5b505050506040513d60408110156113fb57600080fd5b8101908080519060200190929190805190602001909291905050508092508193505050600260009054906101000a900473ffffffffffffffffffffffffffffffffffffffff1673ffffffffffffffffffffffffffffffffffffffff16632703984c6040518163ffffffff1660e01b815260040160206040518083038186803b15801561148657600080fd5b505afa15801561149a573d6000803e3d6000fd5b505050506040513d60208110156114b057600080fd5b8101908080519060200190929190505050600260009054906101000a900473ffffffffffffffffffffffffffffffffffffffff1673ffffffffffffffffffffffffffffffffffffffff1663df011c416040518163ffffffff1660e01b815260040160206040518083038186803b15801561152957600080fd5b505afa15801561153d573d6000803e3d6000fd5b505050506040513d602081101561155357600080fd5b8101908080519060200190929190505050600260009054906101000a900473ffffffffffffffffffffffffffffffffffffffff1673ffffffffffffffffffffffffffffffffffffffff16632703984c6040518163ffffffff1660e01b815260040160206040518083038186803b1580156115cc57600080fd5b505afa1580156115e0573d6000803e3d6000fd5b505050506040513d60208110156115f657600080fd5b81019080805190602001909291905050500182028161161157fe5b0482101561161e57600080fd5b7f222838db2794d11532d940e8dec38ae307ed0b63cd97c233322e221f998767a63384604051808373ffffffffffffffffffffffffffffffffffffffff1673ffffffffffffffffffffffffffffffffffffffff1681526020018281526020019250505060405180910390a1505050565b600080600960008473ffffffffffffffffffffffffffffffffffffffff1673ffffffffffffffffffffffffffffffffffffffff16815260200190815260200160002090506000816000015414156116e9576000915050611717565b6000806116f543612240565b80925081935050508260010154818460000154028161171057fe5b0493505050505b919050565b60008061172a3333856122d2565b80925081935050507f7d216a33e7cc5fdf358cc861228a39d01156282257a57a6ad1e2ca69953fd7043383604051808373ffffffffffffffffffffffffffffffffffffffff1673ffffffffffffffffffffffffffffffffffffffff1681526020018281526020019250505060405180910390a16000811115611812577fadacf827efe383160192c092d8658471945c074229a9746679b5e2b74adff1913382604051808373ffffffffffffffffffffffffffffffffffffffff1673ffffffffffffffffffffffffffffffffffffffff1681526020018281526020019250505060405180910390a15b505050565b6000821161182457600080fd5b3373ffffffffffffffffffffffffffffffffffffffff168373ffffffffffffffffffffffffffffffffffffffff16141561185d57600080fd5b611865610cae565b8073ffffffffffffffffffffffffffffffffffffffff1663a6afed956040518163ffffffff1660e01b8152600401600060405180830381600087803b1580156118ad57600080fd5b505af11580156118c1573d6000803e3d6000fd5b5050505060006118d084610899565b9050828110156118df57600080fd5b600160009054906101000a900473ffffffffffffffffffffffffffffffffffffffff1673ffffffffffffffffffffffffffffffffffffffff166323b872dd3330866040518463ffffffff1660e01b8152600401808473ffffffffffffffffffffffffffffffffffffffff1673ffffffffffffffffffffffffffffffffffffffff1681526020018373ffffffffffffffffffffffffffffffffffffffff1673ffffffffffffffffffffffffffffffffffffffff1681526020018281526020019350505050602060405180830381600087803b1580156119bc57600080fd5b505af11580156119d0573d6000803e3d6000fd5b505050506040513d60208110156119e657600080fd5b8101908080519060200190929190505050611a69576040517f08c379a00000000000000000000000000000000000000000000000000000000081526004018080602001828103825260108152602001807f4e6f20656e6f75676820746f6b656e730000000000000000000000000000000081525060200191505060405180910390fd5b600260009054906101000a900473ffffffffffffffffffffffffffffffffffffffff1673ffffffffffffffffffffffffffffffffffffffff16633bb54d7e853386866040518563ffffffff1660e01b8152600401808573ffffffffffffffffffffffffffffffffffffffff1673ffffffffffffffffffffffffffffffffffffffff1681526020018473ffffffffffffffffffffffffffffffffffffffff1673ffffffffffffffffffffffffffffffffffffffff1681526020018381526020018273ffffffffffffffffffffffffffffffffffffffff1673ffffffffffffffffffffffffffffffffffffffff168152602001945050505050600060405180830381600087803b158015611b7a57600080fd5b505af1158015611b8e573d6000803e3d6000fd5b5050505050505050565b600260009054906101000a900473ffffffffffffffffffffffffffffffffffffffff1681565b6000611bd5611bcb6109ab565b6007546000610869565b905090565b600160009054906101000a900473ffffffffffffffffffffffffffffffffffffffff1681565b6000806005548311611c1b5760075460065491509150611c8d565b60006007541415611c355760075460065491509150611c8d565b6000600554840390506000611c48611bbe565b820290506000670de0b6b3a7640000600754830281611c6357fe5b049050600654670de0b6b3a7640000600654840281611c7e57fe5b04019350600754810194505050505b915091565b600160009054906101000a900473ffffffffffffffffffffffffffffffffffffffff1673ffffffffffffffffffffffffffffffffffffffff166323b872dd8330846040518463ffffffff1660e01b8152600401808473ffffffffffffffffffffffffffffffffffffffff1673ffffffffffffffffffffffffffffffffffffffff1681526020018373ffffffffffffffffffffffffffffffffffffffff1673ffffffffffffffffffffffffffffffffffffffff1681526020018281526020019350505050602060405180830381600087803b158015611d6f57600080fd5b505af1158015611d83573d6000803e3d6000fd5b505050506040513d6020811015611d9957600080fd5b8101908080519060200190929190505050611e1c576040517f08c379a00000000000000000000000000000000000000000000000000000000081526004018080602001828103825260108152602001807f4e6f20656e6f75676820746f6b656e730000000000000000000000000000000081525060200191505060405180910390fd5b611e24610cae565b6000600960008473ffffffffffffffffffffffffffffffffffffffff1673ffffffffffffffffffffffffffffffffffffffff1681526020019081526020016000209050611e708361168e565b816000018190555081600960008573ffffffffffffffffffffffffffffffffffffffff1673ffffffffffffffffffffffffffffffffffffffff16815260200190815260200160002060000160008282540192505081905550600454600960008573ffffffffffffffffffffffffffffffffffffffff1673ffffffffffffffffffffffffffffffffffffffff1681526020019081526020016000206001018190555081600360008282540192505081905550505050565b80600160009054906101000a900473ffffffffffffffffffffffffffffffffffffffff1673ffffffffffffffffffffffffffffffffffffffff166370a08231306040518263ffffffff1660e01b8152600401808273ffffffffffffffffffffffffffffffffffffffff1673ffffffffffffffffffffffffffffffffffffffff16815260200191505060206040518083038186803b158015611fc657600080fd5b505afa158015611fda573d6000803e3d6000fd5b505050506040513d6020811015611ff057600080fd5b8101908080519060200190929190505050101561200c57600080fd5b612014610cae565b6000600960008573ffffffffffffffffffffffffffffffffffffffff1673ffffffffffffffffffffffffffffffffffffffff16815260200190815260200160002090506120608461168e565b8160000181905550600454600960008673ffffffffffffffffffffffffffffffffffffffff1673ffffffffffffffffffffffffffffffffffffffff1681526020019081526020016000206001018190555081816000015410156120c257600080fd5b600160009054906101000a900473ffffffffffffffffffffffffffffffffffffffff1673ffffffffffffffffffffffffffffffffffffffff1663a9059cbb84846040518363ffffffff1660e01b8152600401808373ffffffffffffffffffffffffffffffffffffffff1673ffffffffffffffffffffffffffffffffffffffff16815260200182815260200192505050602060405180830381600087803b15801561216b57600080fd5b505af115801561217f573d6000803e3d6000fd5b505050506040513d602081101561219557600080fd5b8101908080519060200190929190505050612218576040517f08c379a00000000000000000000000000000000000000000000000000000000081526004018080602001828103825260108152602001807f4e6f20656e6f75676820746f6b656e730000000000000000000000000000000081525060200191505060405180910390fd5b8181600001600082825403925050819055508160036000828254039250508190555050505050565b600080600554831161225b57600354600454915091506122cd565b6000600354141561227557600354600454915091506122cd565b6000600554840390506000612288610d49565b820290506000670de0b6b3a76400006003548302816122a357fe5b049050600454670de0b6b3a76400006004548402816122be57fe5b04019350600354810194505050505b915091565b6000806122dd610cae565b6000600a60008673ffffffffffffffffffffffffffffffffffffffff1673ffffffffffffffffffffffffffffffffffffffff1681526020019081526020016000209050600081600001541161233157600080fd5b6000816000015482600101546006548460000154028161234d57fe5b0403905080826000016000828254019250508190555060065482600101819055506000858360000154101561238d57826000015486039050826000015495505b600160009054906101000a900473ffffffffffffffffffffffffffffffffffffffff1673ffffffffffffffffffffffffffffffffffffffff166323b872dd8930896040518463ffffffff1660e01b8152600401808473ffffffffffffffffffffffffffffffffffffffff1673ffffffffffffffffffffffffffffffffffffffff1681526020018373ffffffffffffffffffffffffffffffffffffffff1673ffffffffffffffffffffffffffffffffffffffff1681526020018281526020019350505050602060405180830381600087803b15801561246a57600080fd5b505af115801561247e573d6000803e3d6000fd5b505050506040513d602081101561249457600080fd5b8101908080519060200190929190505050612517576040517f08c379a00000000000000000000000000000000000000000000000000000000081526004018080602001828103825260108152602001807f4e6f20656e6f75676820746f6b656e730000000000000000000000000000000081525060200191505060405180910390fd5b85836000016000828254039250508190555085600760008282540392505081905550600081111561254d5761254c8882611c92565b5b85819450945050505093509391505056fea265627a7a72315820afb43ee200aafdd8163b35ec187527996b15c8a495b1df7336e8fb22c8428efe64736f6c63430005100032",
  "source": "pragma solidity >=0.5.0 <0.6.0;\n\nimport \"./test/ERC20.sol\";\nimport \"./Controller.sol\";\n\ncontract Market is MarketInterface {\n    address public owner;\n\n    ERC20 public token;\n    Controller public controller;\n\n    uint public totalSupply;\n\n    uint public supplyIndex;\n\n    uint public accrualBlockNumber;\n\n    uint public borrowIndex;\n    uint public totalBorrows;\n    uint public baseBorrowRate;\n\n    struct SupplySnapshot {\n        uint supply;\n        uint interestIndex;\n    }\n\n    struct BorrowSnapshot {\n        uint principal;\n        uint interestIndex;\n    }\n\n    mapping (address => SupplySnapshot) supplies;\n    mapping (address => BorrowSnapshot) borrows;\n\n    uint public constant FACTOR = 1e18;\n\n    event Supply(address user, uint amount);\n    event Redeem(address user, uint amount);\n    event Borrow(address user, uint amount);\n    event PayBorrow(address user, uint amount);\n\n    constructor(ERC20 _token, uint _baseBorrowRate) public {\n        require(ERC20(_token).totalSupply() >= 0);\n        owner = msg.sender;\n        token = _token;\n        borrowIndex = FACTOR;\n        supplyIndex = FACTOR;\n        baseBorrowRate = _baseBorrowRate;\n        accrualBlockNumber = block.number;\n    }\n\n    modifier onlyOwner() {\n        require(msg.sender == owner);\n        _;\n    }\n\n    modifier onlyController() {\n        require(msg.sender == address(controller));\n        _;\n    }\n\n    function getCash() public view returns (uint) {\n        return token.balanceOf(address(this));\n    }\n\n    function utilizationRate(uint cash, uint borrowed, uint reserves) public pure returns (uint) {\n        if (borrowed == 0)\n            return 0;\n\n        return borrowed * FACTOR / (cash + borrowed - reserves);\n    }\n\n    function getBorrowRate(uint cash, uint borrowed, uint reserves) public view returns (uint) {\n        uint ur = utilizationRate(cash, borrowed, reserves);\n\n        return ur / 1000 + baseBorrowRate;\n    }\n\n    function getSupplyRate(uint cash, uint borrowed, uint reserves) public view returns (uint) {\n        uint borrowRate = getBorrowRate(cash, borrowed, reserves);\n\n        return utilizationRate(cash, borrowed, reserves) * borrowRate / FACTOR;\n    }\n\n    function borrowRatePerBlock() public view returns (uint) {\n        return getBorrowRate(getCash(), totalBorrows, 0);\n    }\n\n    function supplyRatePerBlock() public view returns (uint) {\n        return getSupplyRate(getCash(), totalBorrows, 0);\n    }\n\n    function supplyOf(address user) public view returns (uint) {\n        return supplies[user].supply;\n    }\n\n    function borrowBy(address user) public view returns (uint) {\n        return borrows[user].principal;\n    }\n\n    function updatedBorrowBy(address user) public view returns (uint) {\n        BorrowSnapshot storage snapshot = borrows[user];\n\n        if (snapshot.principal == 0)\n            return 0;\n\n        uint newTotalBorrows;\n        uint newBorrowIndex;\n\n        (newTotalBorrows, newBorrowIndex) = calculateBorrowDataAtBlock(block.number);\n\n        return snapshot.principal * newBorrowIndex / snapshot.interestIndex;\n    }\n\n    function updatedSupplyOf(address user) public view returns (uint) {\n        SupplySnapshot storage snapshot = supplies[user];\n\n        if (snapshot.supply == 0)\n            return 0;\n\n        uint newTotalSupply;\n        uint newSupplyIndex;\n\n        (newTotalSupply, newSupplyIndex) = calculateSupplyDataAtBlock(block.number);\n\n        return snapshot.supply * newSupplyIndex / snapshot.interestIndex;\n    }\n\n    function setController(Controller _controller) public onlyOwner {\n        controller = _controller;\n    }\n\n    function supply(uint amount) public {\n        supplyInternal(msg.sender, amount);\n\n        emit Supply(msg.sender, amount);\n    }\n\n    function supplyInternal(address supplier, uint amount) internal {\n        // TODO check msg.sender != this\n        require(token.transferFrom(supplier, address(this), amount), \"No enough tokens\");\n\n        accrueInterest();\n\n        SupplySnapshot storage supplySnapshot = supplies[supplier];\n\n        supplySnapshot.supply = updatedSupplyOf(supplier);\n        supplies[supplier].supply += amount;\n        supplies[supplier].interestIndex = supplyIndex;\n\n        totalSupply += amount;\n    }\n\n    function redeem(uint amount) public {\n        redeemInternal(msg.sender, msg.sender, amount);\n\n        uint supplierSupplyValue;\n        uint supplierBorrowValue;\n\n        (supplierSupplyValue, supplierBorrowValue) = controller.getAccountValues(msg.sender);\n\n        require(supplierSupplyValue >= supplierBorrowValue * (controller.MANTISSA() + controller.collateralFactor()) / controller.MANTISSA());\n\n        emit Redeem(msg.sender, amount);\n    }\n\n    function redeemInternal(address supplier, address receiver, uint amount) internal {\n        require(token.balanceOf(address(this)) >= amount);\n\n        accrueInterest();\n\n        SupplySnapshot storage supplySnapshot = supplies[supplier];\n\n        supplySnapshot.supply = updatedSupplyOf(supplier);\n        supplies[supplier].interestIndex = supplyIndex;\n\n        require(supplySnapshot.supply >= amount);\n\n        require(token.transfer(receiver, amount), \"No enough tokens\");\n\n        supplySnapshot.supply -= amount;\n\n        totalSupply -= amount;\n    }\n\n    function borrow(uint amount) public {\n        require(token.balanceOf(address(this)) >= amount);\n\n        accrueInterest();\n\n        BorrowSnapshot storage borrowSnapshot = borrows[msg.sender];\n\n        if (borrowSnapshot.principal > 0) {\n            uint interest = borrowSnapshot.principal * borrowIndex / borrowSnapshot.interestIndex - borrowSnapshot.principal;\n\n            borrowSnapshot.principal += interest;\n            borrowSnapshot.interestIndex = borrowIndex;\n        }\n\n        require(controller.getAccountLiquidity(msg.sender) >= controller.prices(address(this)) * amount * 2, \"Not enough account liquidity\");\n\n        require(token.transfer(msg.sender, amount), \"No enough tokens to borrow\");\n\n        borrowSnapshot.principal += amount;\n        borrowSnapshot.interestIndex = borrowIndex;\n\n        totalBorrows += amount;\n        \n        emit Borrow(msg.sender, amount);\n    }\n\n    function accrueInterest() public {\n        uint currentBlockNumber = block.number;\n\n        (totalBorrows, borrowIndex) = calculateBorrowDataAtBlock(currentBlockNumber);\n        (totalSupply, supplyIndex) = calculateSupplyDataAtBlock(currentBlockNumber);\n\n        accrualBlockNumber = currentBlockNumber;\n    }\n\n    function calculateBorrowDataAtBlock(uint newBlockNumber) internal view returns (uint newTotalBorrows, uint newBorrowIndex) {\n        if (newBlockNumber <= accrualBlockNumber)\n            return (totalBorrows, borrowIndex);\n\n        if (totalBorrows == 0)\n            return (totalBorrows, borrowIndex);\n\n        uint blockDelta = newBlockNumber - accrualBlockNumber;\n\n        uint simpleInterestFactor = blockDelta * borrowRatePerBlock();\n        uint interestAccumulated = simpleInterestFactor * totalBorrows / FACTOR;\n\n        newBorrowIndex = simpleInterestFactor * borrowIndex / FACTOR + borrowIndex;\n        newTotalBorrows = interestAccumulated + totalBorrows;\n    }\n\n    function calculateSupplyDataAtBlock(uint newBlockNumber) internal view returns (uint newTotalSupply, uint newSupplyIndex) {\n        if (newBlockNumber <= accrualBlockNumber)\n            return (totalSupply, supplyIndex);\n\n        if (totalSupply == 0)\n            return (totalSupply, supplyIndex);\n\n        uint blockDelta = newBlockNumber - accrualBlockNumber;\n\n        uint simpleInterestFactor = blockDelta * supplyRatePerBlock();\n        uint interestAccumulated = simpleInterestFactor * totalSupply / FACTOR;\n\n        newSupplyIndex = simpleInterestFactor * supplyIndex / FACTOR + supplyIndex;\n        newTotalSupply = interestAccumulated + totalSupply;\n    }\n\n    function getUpdatedTotalBorrows() public view returns (uint) {\n        uint newTotalBorrows;\n        uint newBorrowIndex;\n\n        (newTotalBorrows, newBorrowIndex) = calculateBorrowDataAtBlock(block.number);\n\n        return newTotalBorrows;\n    }\n\n    function getUpdatedTotalSupply() public view returns (uint) {\n        uint newTotalSupply;\n        uint newSupplyIndex;\n\n        (newTotalSupply, newSupplyIndex) = calculateSupplyDataAtBlock(block.number);\n\n        return newTotalSupply;\n    }\n\n    function payBorrow(uint amount) public {\n        uint paid;\n        uint additional;\n        \n        (paid, additional) = payBorrowInternal(msg.sender, msg.sender, amount);\n        \n        emit PayBorrow(msg.sender, paid);\n        \n        if (additional > 0)\n            emit Supply(msg.sender, additional);\n    }\n\n    function payBorrowInternal(address payer, address borrower, uint amount) internal returns (uint paid, uint supplied) {\n        accrueInterest();\n\n        BorrowSnapshot storage snapshot = borrows[borrower];\n\n        require(snapshot.principal > 0);\n\n        uint interest = snapshot.principal * borrowIndex / snapshot.interestIndex - snapshot.principal;\n\n        snapshot.principal += interest;\n        snapshot.interestIndex = borrowIndex;\n\n        uint additional;\n\n        if (snapshot.principal < amount) {\n            additional = amount - snapshot.principal;\n            amount = snapshot.principal;\n        }\n\n        require(token.transferFrom(payer, address(this), amount), \"No enough tokens\");\n\n        snapshot.principal -= amount;\n        totalBorrows -= amount;\n\n        if (additional > 0)\n            supplyInternal(payer, additional);\n            \n        return (amount, additional);\n    }\n    \n    function liquidateBorrow(address borrower, uint amount, MarketInterface collateralMarket) public {\n        require(amount > 0);\n        require(borrower != msg.sender);\n        \n        accrueInterest();\n        collateralMarket.accrueInterest();\n\n        uint debt = updatedBorrowBy(borrower);\n        \n        require(debt >= amount);\n        require(token.transferFrom(msg.sender, address(this), amount), \"No enough tokens\");\n        controller.liquidateCollateral(borrower, msg.sender, amount, collateralMarket);\n    }\n    \n    function transferTo(address sender, address receiver, uint amount) public onlyController {\n        require(amount > 0);\n        redeemInternal(sender, receiver, amount);\n    }\n}\n\n",
  "sourcePath": "/home/annipi/IOVLABS/rbank-js/dependencies/DeFiProt/contracts/Market.sol",
  "compiler": {
    "name": "solc",
    "version": "0.5.16+commit.9c3226ce.Emscripten.clang"
  },
  "schemaVersion": "3.1.0",
  "updatedAt": "2020-06-24T15:31:49.508Z",
  "devdoc": {
    "methods": {}
  },
  "userdoc": {
    "methods": {}
  }
}