{
  "contractName": "Market",
  "abi": [
    {
      "inputs": [
        {
          "internalType": "contract ERC20",
          "name": "_token",
          "type": "address"
        },
        {
          "internalType": "uint256",
          "name": "_baseBorrowAnnualRate",
          "type": "uint256"
        },
        {
          "internalType": "uint256",
          "name": "_blocksPerYear",
          "type": "uint256"
        },
        {
          "internalType": "uint256",
          "name": "_utilizationRateFraction",
          "type": "uint256"
        }
      ],
      "payable": false,
      "stateMutability": "nonpayable",
      "type": "constructor"
    },
    {
      "anonymous": false,
      "inputs": [
        {
          "indexed": true,
          "internalType": "address",
          "name": "user",
          "type": "address"
        },
        {
          "indexed": false,
          "internalType": "uint256",
          "name": "amount",
          "type": "uint256"
        }
      ],
      "name": "Borrow",
      "type": "event"
    },
    {
      "anonymous": false,
      "inputs": [
        {
          "indexed": true,
          "internalType": "address",
          "name": "borrower",
          "type": "address"
        },
        {
          "indexed": false,
          "internalType": "uint256",
          "name": "amount",
          "type": "uint256"
        },
        {
          "indexed": true,
          "internalType": "address",
          "name": "liquidator",
          "type": "address"
        },
        {
          "indexed": false,
          "internalType": "address",
          "name": "collateralMarket",
          "type": "address"
        },
        {
          "indexed": false,
          "internalType": "uint256",
          "name": "collateralAmount",
          "type": "uint256"
        }
      ],
      "name": "LiquidateBorrow",
      "type": "event"
    },
    {
      "anonymous": false,
      "inputs": [
        {
          "indexed": true,
          "internalType": "address",
          "name": "user",
          "type": "address"
        },
        {
          "indexed": false,
          "internalType": "uint256",
          "name": "amount",
          "type": "uint256"
        }
      ],
      "name": "PayBorrow",
      "type": "event"
    },
    {
      "anonymous": false,
      "inputs": [
        {
          "indexed": true,
          "internalType": "address",
          "name": "user",
          "type": "address"
        },
        {
          "indexed": false,
          "internalType": "uint256",
          "name": "amount",
          "type": "uint256"
        }
      ],
      "name": "Redeem",
      "type": "event"
    },
    {
      "anonymous": false,
      "inputs": [
        {
          "indexed": true,
          "internalType": "address",
          "name": "user",
          "type": "address"
        },
        {
          "indexed": false,
          "internalType": "uint256",
          "name": "amount",
          "type": "uint256"
        }
      ],
      "name": "Supply",
      "type": "event"
    },
    {
      "constant": true,
      "inputs": [],
      "name": "FACTOR",
      "outputs": [
        {
          "internalType": "uint256",
          "name": "",
          "type": "uint256"
        }
      ],
      "payable": false,
      "stateMutability": "view",
      "type": "function"
    },
    {
      "constant": true,
      "inputs": [],
      "name": "accrualBlockNumber",
      "outputs": [
        {
          "internalType": "uint256",
          "name": "",
          "type": "uint256"
        }
      ],
      "payable": false,
      "stateMutability": "view",
      "type": "function"
    },
    {
      "constant": true,
      "inputs": [],
      "name": "baseBorrowRate",
      "outputs": [
        {
          "internalType": "uint256",
          "name": "",
          "type": "uint256"
        }
      ],
      "payable": false,
      "stateMutability": "view",
      "type": "function"
    },
    {
      "constant": true,
      "inputs": [],
      "name": "blocksPerYear",
      "outputs": [
        {
          "internalType": "uint256",
          "name": "",
          "type": "uint256"
        }
      ],
      "payable": false,
      "stateMutability": "view",
      "type": "function"
    },
    {
      "constant": true,
      "inputs": [],
      "name": "borrowIndex",
      "outputs": [
        {
          "internalType": "uint256",
          "name": "",
          "type": "uint256"
        }
      ],
      "payable": false,
      "stateMutability": "view",
      "type": "function"
    },
    {
      "constant": true,
      "inputs": [],
      "name": "controller",
      "outputs": [
        {
          "internalType": "contract Controller",
          "name": "",
          "type": "address"
        }
      ],
      "payable": false,
      "stateMutability": "view",
      "type": "function"
    },
    {
      "constant": true,
      "inputs": [],
      "name": "deployBlock",
      "outputs": [
        {
          "internalType": "uint256",
          "name": "",
          "type": "uint256"
        }
      ],
      "payable": false,
      "stateMutability": "view",
      "type": "function"
    },
    {
      "constant": true,
      "inputs": [],
      "name": "owner",
      "outputs": [
        {
          "internalType": "address",
          "name": "",
          "type": "address"
        }
      ],
      "payable": false,
      "stateMutability": "view",
      "type": "function"
    },
    {
      "constant": true,
      "inputs": [],
      "name": "supplyIndex",
      "outputs": [
        {
          "internalType": "uint256",
          "name": "",
          "type": "uint256"
        }
      ],
      "payable": false,
      "stateMutability": "view",
      "type": "function"
    },
    {
      "constant": true,
      "inputs": [],
      "name": "token",
      "outputs": [
        {
          "internalType": "contract ERC20",
          "name": "",
          "type": "address"
        }
      ],
      "payable": false,
      "stateMutability": "view",
      "type": "function"
    },
    {
      "constant": true,
      "inputs": [],
      "name": "totalBorrows",
      "outputs": [
        {
          "internalType": "uint256",
          "name": "",
          "type": "uint256"
        }
      ],
      "payable": false,
      "stateMutability": "view",
      "type": "function"
    },
    {
      "constant": true,
      "inputs": [],
      "name": "totalSupply",
      "outputs": [
        {
          "internalType": "uint256",
          "name": "",
          "type": "uint256"
        }
      ],
      "payable": false,
      "stateMutability": "view",
      "type": "function"
    },
    {
      "constant": true,
      "inputs": [],
      "name": "utilizationRateFraction",
      "outputs": [
        {
          "internalType": "uint256",
          "name": "",
          "type": "uint256"
        }
      ],
      "payable": false,
      "stateMutability": "view",
      "type": "function"
    },
    {
      "constant": true,
      "inputs": [],
      "name": "getCash",
      "outputs": [
        {
          "internalType": "uint256",
          "name": "",
          "type": "uint256"
        }
      ],
      "payable": false,
      "stateMutability": "view",
      "type": "function"
    },
    {
      "constant": true,
      "inputs": [
        {
          "internalType": "uint256",
          "name": "cash",
          "type": "uint256"
        },
        {
          "internalType": "uint256",
          "name": "borrowed",
          "type": "uint256"
        },
        {
          "internalType": "uint256",
          "name": "reserves",
          "type": "uint256"
        }
      ],
      "name": "utilizationRate",
      "outputs": [
        {
          "internalType": "uint256",
          "name": "",
          "type": "uint256"
        }
      ],
      "payable": false,
      "stateMutability": "pure",
      "type": "function"
    },
    {
      "constant": true,
      "inputs": [
        {
          "internalType": "uint256",
          "name": "cash",
          "type": "uint256"
        },
        {
          "internalType": "uint256",
          "name": "borrowed",
          "type": "uint256"
        },
        {
          "internalType": "uint256",
          "name": "reserves",
          "type": "uint256"
        }
      ],
      "name": "getBorrowRate",
      "outputs": [
        {
          "internalType": "uint256",
          "name": "",
          "type": "uint256"
        }
      ],
      "payable": false,
      "stateMutability": "view",
      "type": "function"
    },
    {
      "constant": true,
      "inputs": [
        {
          "internalType": "uint256",
          "name": "cash",
          "type": "uint256"
        },
        {
          "internalType": "uint256",
          "name": "borrowed",
          "type": "uint256"
        },
        {
          "internalType": "uint256",
          "name": "reserves",
          "type": "uint256"
        }
      ],
      "name": "getSupplyRate",
      "outputs": [
        {
          "internalType": "uint256",
          "name": "",
          "type": "uint256"
        }
      ],
      "payable": false,
      "stateMutability": "view",
      "type": "function"
    },
    {
      "constant": true,
      "inputs": [],
      "name": "borrowRatePerBlock",
      "outputs": [
        {
          "internalType": "uint256",
          "name": "",
          "type": "uint256"
        }
      ],
      "payable": false,
      "stateMutability": "view",
      "type": "function"
    },
    {
      "constant": true,
      "inputs": [],
      "name": "supplyRatePerBlock",
      "outputs": [
        {
          "internalType": "uint256",
          "name": "",
          "type": "uint256"
        }
      ],
      "payable": false,
      "stateMutability": "view",
      "type": "function"
    },
    {
      "constant": true,
      "inputs": [
        {
          "internalType": "address",
          "name": "user",
          "type": "address"
        }
      ],
      "name": "supplyOf",
      "outputs": [
        {
          "internalType": "uint256",
          "name": "",
          "type": "uint256"
        }
      ],
      "payable": false,
      "stateMutability": "view",
      "type": "function"
    },
    {
      "constant": true,
      "inputs": [
        {
          "internalType": "address",
          "name": "user",
          "type": "address"
        }
      ],
      "name": "borrowBy",
      "outputs": [
        {
          "internalType": "uint256",
          "name": "",
          "type": "uint256"
        }
      ],
      "payable": false,
      "stateMutability": "view",
      "type": "function"
    },
    {
      "constant": true,
      "inputs": [
        {
          "internalType": "address",
          "name": "user",
          "type": "address"
        }
      ],
      "name": "updatedBorrowBy",
      "outputs": [
        {
          "internalType": "uint256",
          "name": "",
          "type": "uint256"
        }
      ],
      "payable": false,
      "stateMutability": "view",
      "type": "function"
    },
    {
      "constant": true,
      "inputs": [
        {
          "internalType": "address",
          "name": "user",
          "type": "address"
        }
      ],
      "name": "updatedSupplyOf",
      "outputs": [
        {
          "internalType": "uint256",
          "name": "",
          "type": "uint256"
        }
      ],
      "payable": false,
      "stateMutability": "view",
      "type": "function"
    },
    {
      "constant": false,
      "inputs": [
        {
          "internalType": "contract Controller",
          "name": "_controller",
          "type": "address"
        }
      ],
      "name": "setController",
      "outputs": [],
      "payable": false,
      "stateMutability": "nonpayable",
      "type": "function"
    },
    {
      "constant": false,
      "inputs": [
        {
          "internalType": "uint256",
          "name": "amount",
          "type": "uint256"
        }
      ],
      "name": "supply",
      "outputs": [],
      "payable": false,
      "stateMutability": "nonpayable",
      "type": "function"
    },
    {
      "constant": false,
      "inputs": [
        {
          "internalType": "uint256",
          "name": "amount",
          "type": "uint256"
        }
      ],
      "name": "redeem",
      "outputs": [],
      "payable": false,
      "stateMutability": "nonpayable",
      "type": "function"
    },
    {
      "constant": false,
      "inputs": [
        {
          "internalType": "uint256",
          "name": "amount",
          "type": "uint256"
        }
      ],
      "name": "borrow",
      "outputs": [],
      "payable": false,
      "stateMutability": "nonpayable",
      "type": "function"
    },
    {
      "constant": false,
      "inputs": [],
      "name": "accrueInterest",
      "outputs": [],
      "payable": false,
      "stateMutability": "nonpayable",
      "type": "function"
    },
    {
      "constant": true,
      "inputs": [],
      "name": "getUpdatedTotalBorrows",
      "outputs": [
        {
          "internalType": "uint256",
          "name": "",
          "type": "uint256"
        }
      ],
      "payable": false,
      "stateMutability": "view",
      "type": "function"
    },
    {
      "constant": true,
      "inputs": [],
      "name": "getUpdatedTotalSupply",
      "outputs": [
        {
          "internalType": "uint256",
          "name": "",
          "type": "uint256"
        }
      ],
      "payable": false,
      "stateMutability": "view",
      "type": "function"
    },
    {
      "constant": false,
      "inputs": [
        {
          "internalType": "uint256",
          "name": "amount",
          "type": "uint256"
        }
      ],
      "name": "payBorrow",
      "outputs": [],
      "payable": false,
      "stateMutability": "nonpayable",
      "type": "function"
    },
    {
      "constant": false,
      "inputs": [
        {
          "internalType": "address",
          "name": "borrower",
          "type": "address"
        },
        {
          "internalType": "uint256",
          "name": "amount",
          "type": "uint256"
        },
        {
          "internalType": "contract MarketInterface",
          "name": "collateralMarket",
          "type": "address"
        }
      ],
      "name": "liquidateBorrow",
      "outputs": [],
      "payable": false,
      "stateMutability": "nonpayable",
      "type": "function"
    },
    {
      "constant": false,
      "inputs": [
        {
          "internalType": "address",
          "name": "sender",
          "type": "address"
        },
        {
          "internalType": "address",
          "name": "receiver",
          "type": "address"
        },
        {
          "internalType": "uint256",
          "name": "amount",
          "type": "uint256"
        }
      ],
      "name": "transferTo",
      "outputs": [],
      "payable": false,
      "stateMutability": "nonpayable",
      "type": "function"
    }
  ],
  "bytecode": "0x60806040523480156200001157600080fd5b5060405162002b9638038062002b96833981810160405260808110156200003757600080fd5b810190808051906020019092919080519060200190929190805190602001909291908051906020019092919050505060008473ffffffffffffffffffffffffffffffffffffffff166318160ddd6040518163ffffffff1660e01b815260040160206040518083038186803b158015620000af57600080fd5b505afa158015620000c4573d6000803e3d6000fd5b505050506040513d6020811015620000db57600080fd5b81019080805190602001909291905050501015620000f857600080fd5b336000806101000a81548173ffffffffffffffffffffffffffffffffffffffff021916908373ffffffffffffffffffffffffffffffffffffffff16021790555083600160006101000a81548173ffffffffffffffffffffffffffffffffffffffff021916908373ffffffffffffffffffffffffffffffffffffffff160217905550670de0b6b3a7640000600681905550670de0b6b3a764000060048190555081600b81905550620001b88284620001f660201b62001e131790919060201c565b60088190555043600581905550620001df8282620001f660201b62001e131790919060201c565b60098190555043600a81905550505050506200020b565b60008183816200020257fe5b04905092915050565b61297b806200021b6000396000f3fe608060405234801561001057600080fd5b50600436106101fb5760003560e01c8063a3ec191a1161011a578063c2b170cb116100ad578063f5d1b7e81161007c578063f5d1b7e814610796578063f5e3c462146107c4578063f77c479114610832578063f8f9da281461087c578063fc0c546a1461089a576101fb565b8063c2b170cb146106c4578063c5ebeaec146106e2578063db006a7514610710578063e681dc711461073e576101fb565b8063ad8feadb116100e9578063ad8feadb14610612578063ae9d70b01461066a578063b7098eea14610688578063bf386682146106a6576101fb565b8063a3ec191a1461055e578063a5f2a1521461057c578063a6afed95146105ea578063aa5af0fd146105f4576101fb565b806362400e4c116101925780638da5cb5b116101615780638da5cb5b1461049457806392eefe9b146104de57806398f1bc1214610522578063a385fb9614610540576101fb565b806362400e4c146103aa5780636c540baf146104025780636e71e2d81461042057806378f1dc0314610476576101fb565b806335815b95116101ce57806335815b95146102fa5780633b1d21a21461031857806347bd3718146103365780634a31964714610354576101fb565b806315f240531461020057806318160ddd146102565780632aad6aa81461027457806335403023146102cc575b600080fd5b6102406004803603606081101561021657600080fd5b810190808035906020019092919080359060200190929190803590602001909291905050506108e4565b6040518082815260200191505060405180910390f35b61025e610941565b6040518082815260200191505060405180910390f35b6102b66004803603602081101561028a57600080fd5b81019080803573ffffffffffffffffffffffffffffffffffffffff169060200190929190505050610947565b6040518082815260200191505060405180910390f35b6102f8600480360360208110156102e257600080fd5b81019080803590602001909291905050506109ee565b005b610302610a49565b6040518082815260200191505060405180910390f35b610320610a55565b6040518082815260200191505060405180910390f35b61033e610b36565b6040518082815260200191505060405180910390f35b6103946004803603606081101561036a57600080fd5b81019080803590602001909291908035906020019092919080359060200190929190505050610b3c565b6040518082815260200191505060405180910390f35b6103ec600480360360208110156103c057600080fd5b81019080803573ffffffffffffffffffffffffffffffffffffffff169060200190929190505050610b8d565b6040518082815260200191505060405180910390f35b61040a610bd9565b6040518082815260200191505060405180910390f35b6104606004803603606081101561043657600080fd5b81019080803590602001909291908035906020019092919080359060200190929190505050610bdf565b6040518082815260200191505060405180910390f35b61047e610c4d565b6040518082815260200191505060405180910390f35b61049c610c6b565b604051808273ffffffffffffffffffffffffffffffffffffffff1673ffffffffffffffffffffffffffffffffffffffff16815260200191505060405180910390f35b610520600480360360208110156104f457600080fd5b81019080803573ffffffffffffffffffffffffffffffffffffffff169060200190929190505050610c90565b005b61052a610d2d565b6040518082815260200191505060405180910390f35b610548610d33565b6040518082815260200191505060405180910390f35b610566610d39565b6040518082815260200191505060405180910390f35b6105e86004803603606081101561059257600080fd5b81019080803573ffffffffffffffffffffffffffffffffffffffff169060200190929190803573ffffffffffffffffffffffffffffffffffffffff16906020019092919080359060200190929190505050610d3f565b005b6105f2610db6565b005b6105fc610dff565b6040518082815260200191505060405180910390f35b6106546004803603602081101561062857600080fd5b81019080803573ffffffffffffffffffffffffffffffffffffffff169060200190929190505050610e05565b6040518082815260200191505060405180910390f35b610672610e51565b6040518082815260200191505060405180910390f35b610690610e6d565b6040518082815260200191505060405180910390f35b6106ae610e73565b6040518082815260200191505060405180910390f35b6106cc610e79565b6040518082815260200191505060405180910390f35b61070e600480360360208110156106f857600080fd5b8101908080359060200190929190505050610e97565b005b61073c6004803603602081101561072657600080fd5b8101908080359060200190929190505050611484565b005b6107806004803603602081101561075457600080fd5b81019080803573ffffffffffffffffffffffffffffffffffffffff1690602001909291905050506117f9565b6040518082815260200191505060405180910390f35b6107c2600480360360208110156107ac57600080fd5b81019080803590602001909291905050506118a0565b005b610830600480360360608110156107da57600080fd5b81019080803573ffffffffffffffffffffffffffffffffffffffff16906020019092919080359060200190929190803573ffffffffffffffffffffffffffffffffffffffff169060200190929190505050611961565b005b61083a611d77565b604051808273ffffffffffffffffffffffffffffffffffffffff1673ffffffffffffffffffffffffffffffffffffffff16815260200191505060405180910390f35b610884611d9d565b6040518082815260200191505060405180910390f35b6108a2611db9565b604051808273ffffffffffffffffffffffffffffffffffffffff1673ffffffffffffffffffffffffffffffffffffffff16815260200191505060405180910390f35b6000806108f2858585610bdf565b9050610937600854610929670de0b6b3a764000061091b60095486611ddf90919063ffffffff16565b611e1390919063ffffffff16565b611e2790919063ffffffff16565b9150509392505050565b60035481565b600080600d60008473ffffffffffffffffffffffffffffffffffffffff1673ffffffffffffffffffffffffffffffffffffffff16815260200190815260200160002090506000816000015414156109a25760009150506109e9565b6000806109ae43611e41565b80925081935050506109e383600101546109d5838660000154611ddf90919063ffffffff16565b611e1390919063ffffffff16565b93505050505b919050565b6109f83382611f35565b3373ffffffffffffffffffffffffffffffffffffffff167fadacf827efe383160192c092d8658471945c074229a9746679b5e2b74adff191826040518082815260200191505060405180910390a250565b670de0b6b3a764000081565b6000600160009054906101000a900473ffffffffffffffffffffffffffffffffffffffff1673ffffffffffffffffffffffffffffffffffffffff166370a08231306040518263ffffffff1660e01b8152600401808273ffffffffffffffffffffffffffffffffffffffff1673ffffffffffffffffffffffffffffffffffffffff16815260200191505060206040518083038186803b158015610af657600080fd5b505afa158015610b0a573d6000803e3d6000fd5b505050506040513d6020811015610b2057600080fd5b8101908080519060200190929190505050905090565b60075481565b600080610b4a8585856108e4565b9050610b83670de0b6b3a7640000610b7583610b67898989610bdf565b611ddf90919063ffffffff16565b611e1390919063ffffffff16565b9150509392505050565b6000600c60008373ffffffffffffffffffffffffffffffffffffffff1673ffffffffffffffffffffffffffffffffffffffff168152602001908152602001600020600001549050919050565b60055481565b600080831415610bf25760009050610c46565b610c43610c1a83610c0c8688611e2790919063ffffffff16565b61221f90919063ffffffff16565b610c35670de0b6b3a764000086611ddf90919063ffffffff16565b611e1390919063ffffffff16565b90505b9392505050565b6000806000610c5b43611e41565b8092508193505050819250505090565b6000809054906101000a900473ffffffffffffffffffffffffffffffffffffffff1681565b6000809054906101000a900473ffffffffffffffffffffffffffffffffffffffff1673ffffffffffffffffffffffffffffffffffffffff163373ffffffffffffffffffffffffffffffffffffffff1614610ce957600080fd5b80600260006101000a81548173ffffffffffffffffffffffffffffffffffffffff021916908373ffffffffffffffffffffffffffffffffffffffff16021790555050565b60045481565b600b5481565b600a5481565b600260009054906101000a900473ffffffffffffffffffffffffffffffffffffffff1673ffffffffffffffffffffffffffffffffffffffff163373ffffffffffffffffffffffffffffffffffffffff1614610d9957600080fd5b60008111610da657600080fd5b610db1838383612236565b505050565b6000439050610dc481611e41565b6007600060066000849190505583919050555050610de181612568565b60036000600460008491905055839190505550508060058190555050565b60065481565b6000600d60008373ffffffffffffffffffffffffffffffffffffffff1673ffffffffffffffffffffffffffffffffffffffff168152602001908152602001600020600001549050919050565b6000610e68610e5e610a55565b6007546000610b3c565b905090565b60095481565b60085481565b6000806000610e8743612568565b8092508193505050819250505090565b80600160009054906101000a900473ffffffffffffffffffffffffffffffffffffffff1673ffffffffffffffffffffffffffffffffffffffff166370a08231306040518263ffffffff1660e01b8152600401808273ffffffffffffffffffffffffffffffffffffffff1673ffffffffffffffffffffffffffffffffffffffff16815260200191505060206040518083038186803b158015610f3757600080fd5b505afa158015610f4b573d6000803e3d6000fd5b505050506040513d6020811015610f6157600080fd5b81019080805190602001909291905050501015610f7d57600080fd5b610f85610db6565b6000600d60003373ffffffffffffffffffffffffffffffffffffffff1673ffffffffffffffffffffffffffffffffffffffff168152602001908152602001600020905060008160000154111561104a57600061101c826000015461100e84600101546110006006548760000154611ddf90919063ffffffff16565b611e1390919063ffffffff16565b61221f90919063ffffffff16565b9050611035818360000154611e2790919063ffffffff16565b82600001819055506006548260010181905550505b611149600261113b84600260009054906101000a900473ffffffffffffffffffffffffffffffffffffffff1673ffffffffffffffffffffffffffffffffffffffff1663cfed246b306040518263ffffffff1660e01b8152600401808273ffffffffffffffffffffffffffffffffffffffff1673ffffffffffffffffffffffffffffffffffffffff16815260200191505060206040518083038186803b1580156110f257600080fd5b505afa158015611106573d6000803e3d6000fd5b505050506040513d602081101561111c57600080fd5b8101908080519060200190929190505050611ddf90919063ffffffff16565b611ddf90919063ffffffff16565b600260009054906101000a900473ffffffffffffffffffffffffffffffffffffffff1673ffffffffffffffffffffffffffffffffffffffff16635ec88c79336040518263ffffffff1660e01b8152600401808273ffffffffffffffffffffffffffffffffffffffff1673ffffffffffffffffffffffffffffffffffffffff16815260200191505060206040518083038186803b1580156111e857600080fd5b505afa1580156111fc573d6000803e3d6000fd5b505050506040513d602081101561121257600080fd5b81019080805190602001909291905050501015611297576040517f08c379a000000000000000000000000000000000000000000000000000000000815260040180806020018281038252601c8152602001807f4e6f7420656e6f756768206163636f756e74206c69717569646974790000000081525060200191505060405180910390fd5b600160009054906101000a900473ffffffffffffffffffffffffffffffffffffffff1673ffffffffffffffffffffffffffffffffffffffff1663a9059cbb33846040518363ffffffff1660e01b8152600401808373ffffffffffffffffffffffffffffffffffffffff1673ffffffffffffffffffffffffffffffffffffffff16815260200182815260200192505050602060405180830381600087803b15801561134057600080fd5b505af1158015611354573d6000803e3d6000fd5b505050506040513d602081101561136a57600080fd5b81019080805190602001909291905050506113ed576040517f08c379a000000000000000000000000000000000000000000000000000000000815260040180806020018281038252601a8152602001807f4e6f20656e6f75676820746f6b656e7320746f20626f72726f7700000000000081525060200191505060405180910390fd5b611404828260000154611e2790919063ffffffff16565b8160000181905550600654816001018190555061142c82600754611e2790919063ffffffff16565b6007819055503373ffffffffffffffffffffffffffffffffffffffff167fcbc04eca7e9da35cb1393a6135a199ca52e450d5e9251cbd99f7847d33a36750836040518082815260200191505060405180910390a25050565b61148f333383612236565b600080600260009054906101000a900473ffffffffffffffffffffffffffffffffffffffff1673ffffffffffffffffffffffffffffffffffffffff16633baadca0336040518263ffffffff1660e01b8152600401808273ffffffffffffffffffffffffffffffffffffffff1673ffffffffffffffffffffffffffffffffffffffff168152602001915050604080518083038186803b15801561153057600080fd5b505afa158015611544573d6000803e3d6000fd5b505050506040513d604081101561155a57600080fd5b810190808051906020019092919080519060200190929190505050809250819350505061179a600260009054906101000a900473ffffffffffffffffffffffffffffffffffffffff1673ffffffffffffffffffffffffffffffffffffffff16632703984c6040518163ffffffff1660e01b815260040160206040518083038186803b1580156115e857600080fd5b505afa1580156115fc573d6000803e3d6000fd5b505050506040513d602081101561161257600080fd5b810190808051906020019092919050505061178c61177d600260009054906101000a900473ffffffffffffffffffffffffffffffffffffffff1673ffffffffffffffffffffffffffffffffffffffff1663df011c416040518163ffffffff1660e01b815260040160206040518083038186803b15801561169157600080fd5b505afa1580156116a5573d6000803e3d6000fd5b505050506040513d60208110156116bb57600080fd5b8101908080519060200190929190505050600260009054906101000a900473ffffffffffffffffffffffffffffffffffffffff1673ffffffffffffffffffffffffffffffffffffffff16632703984c6040518163ffffffff1660e01b815260040160206040518083038186803b15801561173457600080fd5b505afa158015611748573d6000803e3d6000fd5b505050506040513d602081101561175e57600080fd5b8101908080519060200190929190505050611e2790919063ffffffff16565b84611ddf90919063ffffffff16565b611e1390919063ffffffff16565b8210156117a657600080fd5b3373ffffffffffffffffffffffffffffffffffffffff167f222838db2794d11532d940e8dec38ae307ed0b63cd97c233322e221f998767a6846040518082815260200191505060405180910390a2505050565b600080600c60008473ffffffffffffffffffffffffffffffffffffffff1673ffffffffffffffffffffffffffffffffffffffff168152602001908152602001600020905060008160000154141561185457600091505061189b565b60008061186043612568565b80925081935050506118958360010154611887838660000154611ddf90919063ffffffff16565b611e1390919063ffffffff16565b93505050505b919050565b6000806118ae33338561265c565b80925081935050503373ffffffffffffffffffffffffffffffffffffffff167f7d216a33e7cc5fdf358cc861228a39d01156282257a57a6ad1e2ca69953fd704836040518082815260200191505060405180910390a2600081111561195c573373ffffffffffffffffffffffffffffffffffffffff167fadacf827efe383160192c092d8658471945c074229a9746679b5e2b74adff191826040518082815260200191505060405180910390a25b505050565b6000821161196e57600080fd5b3373ffffffffffffffffffffffffffffffffffffffff168373ffffffffffffffffffffffffffffffffffffffff1614156119a757600080fd5b6119af610db6565b8073ffffffffffffffffffffffffffffffffffffffff1663a6afed956040518163ffffffff1660e01b8152600401600060405180830381600087803b1580156119f757600080fd5b505af1158015611a0b573d6000803e3d6000fd5b505050506000611a1a84610947565b905082811015611a2957600080fd5b82600160009054906101000a900473ffffffffffffffffffffffffffffffffffffffff1673ffffffffffffffffffffffffffffffffffffffff166370a08231336040518263ffffffff1660e01b8152600401808273ffffffffffffffffffffffffffffffffffffffff1673ffffffffffffffffffffffffffffffffffffffff16815260200191505060206040518083038186803b158015611ac957600080fd5b505afa158015611add573d6000803e3d6000fd5b505050506040513d6020811015611af357600080fd5b81019080805190602001909291905050501015611b0f57600080fd5b6000600260009054906101000a900473ffffffffffffffffffffffffffffffffffffffff1673ffffffffffffffffffffffffffffffffffffffff16633bb54d7e863387876040518563ffffffff1660e01b8152600401808573ffffffffffffffffffffffffffffffffffffffff1673ffffffffffffffffffffffffffffffffffffffff1681526020018473ffffffffffffffffffffffffffffffffffffffff1673ffffffffffffffffffffffffffffffffffffffff1681526020018381526020018273ffffffffffffffffffffffffffffffffffffffff1673ffffffffffffffffffffffffffffffffffffffff168152602001945050505050602060405180830381600087803b158015611c2257600080fd5b505af1158015611c36573d6000803e3d6000fd5b505050506040513d6020811015611c4c57600080fd5b81019080805190602001909291905050509050600080611c6d33888861265c565b80925081935050503373ffffffffffffffffffffffffffffffffffffffff168773ffffffffffffffffffffffffffffffffffffffff167f982b5ad15c880b722c6f577cb6e10dfd0bfb2a82c5c1d3ee6ee4cecc9d535428848887604051808481526020018373ffffffffffffffffffffffffffffffffffffffff1673ffffffffffffffffffffffffffffffffffffffff168152602001828152602001935050505060405180910390a36000811115611d6e573373ffffffffffffffffffffffffffffffffffffffff167fadacf827efe383160192c092d8658471945c074229a9746679b5e2b74adff191826040518082815260200191505060405180910390a25b50505050505050565b600260009054906101000a900473ffffffffffffffffffffffffffffffffffffffff1681565b6000611db4611daa610a55565b60075460006108e4565b905090565b600160009054906101000a900473ffffffffffffffffffffffffffffffffffffffff1681565b600080831415611df25760009050611e0d565b818302905081838281611e0157fe5b0414611e0957fe5b8090505b92915050565b6000818381611e1e57fe5b04905092915050565b6000818301905082811015611e3857fe5b80905092915050565b6000806005548311611e5c5760075460065491509150611f30565b60006007541415611e765760075460065491509150611f30565b6000600554840390506000611e9b82611e8d611d9d565b611ddf90919063ffffffff16565b90506000611ece670de0b6b3a7640000611ec060075485611ddf90919063ffffffff16565b611e1390919063ffffffff16565b9050611f13600654611f05670de0b6b3a7640000611ef760065487611ddf90919063ffffffff16565b611e1390919063ffffffff16565b611e2790919063ffffffff16565b9350611f2a60075482611e2790919063ffffffff16565b94505050505b915091565b600160009054906101000a900473ffffffffffffffffffffffffffffffffffffffff1673ffffffffffffffffffffffffffffffffffffffff166323b872dd8330846040518463ffffffff1660e01b8152600401808473ffffffffffffffffffffffffffffffffffffffff1673ffffffffffffffffffffffffffffffffffffffff1681526020018373ffffffffffffffffffffffffffffffffffffffff1673ffffffffffffffffffffffffffffffffffffffff1681526020018281526020019350505050602060405180830381600087803b15801561201257600080fd5b505af1158015612026573d6000803e3d6000fd5b505050506040513d602081101561203c57600080fd5b81019080805190602001909291905050506120bf576040517f08c379a00000000000000000000000000000000000000000000000000000000081526004018080602001828103825260108152602001807f4e6f20656e6f75676820746f6b656e730000000000000000000000000000000081525060200191505060405180910390fd5b6120c7610db6565b6000600c60008473ffffffffffffffffffffffffffffffffffffffff1673ffffffffffffffffffffffffffffffffffffffff1681526020019081526020016000209050612113836117f9565b816000018190555061217082600c60008673ffffffffffffffffffffffffffffffffffffffff1673ffffffffffffffffffffffffffffffffffffffff16815260200190815260200160002060000154611e2790919063ffffffff16565b600c60008573ffffffffffffffffffffffffffffffffffffffff1673ffffffffffffffffffffffffffffffffffffffff16815260200190815260200160002060000181905550600454600c60008573ffffffffffffffffffffffffffffffffffffffff1673ffffffffffffffffffffffffffffffffffffffff1681526020019081526020016000206001018190555061221482600354611e2790919063ffffffff16565b600381905550505050565b60008282111561222b57fe5b818303905092915050565b80600160009054906101000a900473ffffffffffffffffffffffffffffffffffffffff1673ffffffffffffffffffffffffffffffffffffffff166370a08231306040518263ffffffff1660e01b8152600401808273ffffffffffffffffffffffffffffffffffffffff1673ffffffffffffffffffffffffffffffffffffffff16815260200191505060206040518083038186803b1580156122d657600080fd5b505afa1580156122ea573d6000803e3d6000fd5b505050506040513d602081101561230057600080fd5b8101908080519060200190929190505050101561231c57600080fd5b612324610db6565b6000600c60008573ffffffffffffffffffffffffffffffffffffffff1673ffffffffffffffffffffffffffffffffffffffff1681526020019081526020016000209050612370846117f9565b8160000181905550600454600c60008673ffffffffffffffffffffffffffffffffffffffff1673ffffffffffffffffffffffffffffffffffffffff1681526020019081526020016000206001018190555081816000015410156123d257600080fd5b600160009054906101000a900473ffffffffffffffffffffffffffffffffffffffff1673ffffffffffffffffffffffffffffffffffffffff1663a9059cbb84846040518363ffffffff1660e01b8152600401808373ffffffffffffffffffffffffffffffffffffffff1673ffffffffffffffffffffffffffffffffffffffff16815260200182815260200192505050602060405180830381600087803b15801561247b57600080fd5b505af115801561248f573d6000803e3d6000fd5b505050506040513d60208110156124a557600080fd5b8101908080519060200190929190505050612528576040517f08c379a00000000000000000000000000000000000000000000000000000000081526004018080602001828103825260108152602001807f4e6f20656e6f75676820746f6b656e730000000000000000000000000000000081525060200191505060405180910390fd5b61253f82826000015461221f90919063ffffffff16565b816000018190555061255c8260035461221f90919063ffffffff16565b60038190555050505050565b60008060055483116125835760035460045491509150612657565b6000600354141561259d5760035460045491509150612657565b60006005548403905060006125c2826125b4610e51565b611ddf90919063ffffffff16565b905060006125f5670de0b6b3a76400006125e760035485611ddf90919063ffffffff16565b611e1390919063ffffffff16565b905061263a60045461262c670de0b6b3a764000061261e60045487611ddf90919063ffffffff16565b611e1390919063ffffffff16565b611e2790919063ffffffff16565b935061265160035482611e2790919063ffffffff16565b94505050505b915091565b600080612667610db6565b6000600d60008673ffffffffffffffffffffffffffffffffffffffff1673ffffffffffffffffffffffffffffffffffffffff168152602001908152602001600020905060008160000154116126bb57600080fd5b600061270282600001546126f484600101546126e66006548760000154611ddf90919063ffffffff16565b611e1390919063ffffffff16565b61221f90919063ffffffff16565b905061271b818360000154611e2790919063ffffffff16565b826000018190555060065482600101819055506000858360000154101561275d5761275383600001548761221f90919063ffffffff16565b9050826000015495505b600160009054906101000a900473ffffffffffffffffffffffffffffffffffffffff1673ffffffffffffffffffffffffffffffffffffffff166323b872dd8930896040518463ffffffff1660e01b8152600401808473ffffffffffffffffffffffffffffffffffffffff1673ffffffffffffffffffffffffffffffffffffffff1681526020018373ffffffffffffffffffffffffffffffffffffffff1673ffffffffffffffffffffffffffffffffffffffff1681526020018281526020019350505050602060405180830381600087803b15801561283a57600080fd5b505af115801561284e573d6000803e3d6000fd5b505050506040513d602081101561286457600080fd5b81019080805190602001909291905050506128e7576040517f08c379a00000000000000000000000000000000000000000000000000000000081526004018080602001828103825260108152602001807f4e6f20656e6f75676820746f6b656e730000000000000000000000000000000081525060200191505060405180910390fd5b6128fe86846000015461221f90919063ffffffff16565b836000018190555061291b8660075461221f90919063ffffffff16565b6007819055506000811115612935576129348882611f35565b5b85819450945050505093509391505056fea265627a7a72315820ee33871e15d71ee1396e5b0a14eb43ba391bf21b5ac4ec3479ca6c9e86f225ef64736f6c63430005100032",
  "source": "pragma solidity >=0.5.0 <0.6.0;\n\nimport \"./test/ERC20.sol\";\nimport \"./Controller.sol\";\nimport \"./test/SafeMath.sol\";\n\ncontract Market is MarketInterface {\n    using SafeMath for uint256;\n\n    address public owner;\n\n    ERC20 public token;\n    Controller public controller;\n\n    uint public totalSupply;\n\n    uint public supplyIndex;\n\n    uint public accrualBlockNumber;\n\n    uint public borrowIndex;\n    uint public totalBorrows;\n    uint public baseBorrowRate;\n    uint public utilizationRateFraction;\n    uint public deployBlock;\n\n    uint public blocksPerYear;\n\n    struct SupplySnapshot {\n        uint supply;\n        uint interestIndex;\n    }\n\n    struct BorrowSnapshot {\n        uint principal;\n        uint interestIndex;\n    }\n\n    mapping (address => SupplySnapshot) supplies;\n    mapping (address => BorrowSnapshot) borrows;\n\n    uint public constant FACTOR = 1e18;\n\n    event Supply(address indexed user, uint amount);\n    event Redeem(address indexed user, uint amount);\n    event Borrow(address indexed user, uint amount);\n    event PayBorrow(address indexed user, uint amount);\n    event LiquidateBorrow(address indexed borrower, uint amount, address indexed liquidator, address collateralMarket, uint collateralAmount);\n\n    constructor(ERC20 _token, uint _baseBorrowAnnualRate, uint _blocksPerYear, uint _utilizationRateFraction) public {\n        require(ERC20(_token).totalSupply() >= 0);\n        owner = msg.sender;\n        token = _token;\n        borrowIndex = FACTOR;\n        supplyIndex = FACTOR;\n        blocksPerYear = _blocksPerYear;\n        baseBorrowRate = _baseBorrowAnnualRate.div(_blocksPerYear);\n        accrualBlockNumber = block.number;\n        utilizationRateFraction = _utilizationRateFraction.div(_blocksPerYear);\n        deployBlock = block.number;\n    }\n\n    modifier onlyOwner() {\n        require(msg.sender == owner);\n        _;\n    }\n\n    modifier onlyController() {\n        require(msg.sender == address(controller));\n        _;\n    }\n\n    function getCash() public view returns (uint) {\n        return token.balanceOf(address(this));\n    }\n\n    function utilizationRate(uint cash, uint borrowed, uint reserves) public pure returns (uint) {\n        if (borrowed == 0)\n            return 0;\n\n        return borrowed.mul(FACTOR).div(cash.add(borrowed).sub(reserves));\n    }\n\n    function getBorrowRate(uint cash, uint borrowed, uint reserves) public view returns (uint) {\n        uint ur = utilizationRate(cash, borrowed, reserves);\n\n        return ur.mul(utilizationRateFraction).div(FACTOR).add(baseBorrowRate);\n    }\n\n    function getSupplyRate(uint cash, uint borrowed, uint reserves) public view returns (uint) {\n        uint borrowRate = getBorrowRate(cash, borrowed, reserves);\n\n        return utilizationRate(cash, borrowed, reserves).mul(borrowRate).div(FACTOR);\n    }\n\n    function borrowRatePerBlock() public view returns (uint) {\n        return getBorrowRate(getCash(), totalBorrows, 0);\n    }\n\n    function supplyRatePerBlock() public view returns (uint) {\n        return getSupplyRate(getCash(), totalBorrows, 0);\n    }\n\n    function supplyOf(address user) public view returns (uint) {\n        return supplies[user].supply;\n    }\n\n    function borrowBy(address user) public view returns (uint) {\n        return borrows[user].principal;\n    }\n\n    function updatedBorrowBy(address user) public view returns (uint) {\n        BorrowSnapshot storage snapshot = borrows[user];\n\n        if (snapshot.principal == 0)\n            return 0;\n\n        uint newTotalBorrows;\n        uint newBorrowIndex;\n\n        (newTotalBorrows, newBorrowIndex) = calculateBorrowDataAtBlock(block.number);\n\n        return snapshot.principal.mul(newBorrowIndex).div(snapshot.interestIndex);\n    }\n\n    function updatedSupplyOf(address user) public view returns (uint) {\n        SupplySnapshot storage snapshot = supplies[user];\n\n        if (snapshot.supply == 0)\n            return 0;\n\n        uint newTotalSupply;\n        uint newSupplyIndex;\n\n        (newTotalSupply, newSupplyIndex) = calculateSupplyDataAtBlock(block.number);\n\n        return snapshot.supply.mul(newSupplyIndex).div(snapshot.interestIndex);\n    }\n\n    function setController(Controller _controller) public onlyOwner {\n        controller = _controller;\n    }\n\n    function supply(uint amount) public {\n        supplyInternal(msg.sender, amount);\n\n        emit Supply(msg.sender, amount);\n    }\n\n    function supplyInternal(address supplier, uint amount) internal {\n        // TODO check msg.sender != this\n        require(token.transferFrom(supplier, address(this), amount), \"No enough tokens\");\n\n        accrueInterest();\n\n        SupplySnapshot storage supplySnapshot = supplies[supplier];\n\n        supplySnapshot.supply = updatedSupplyOf(supplier);\n        supplies[supplier].supply = supplies[supplier].supply.add(amount);\n        supplies[supplier].interestIndex = supplyIndex;\n\n        totalSupply = totalSupply.add(amount);\n    }\n\n    function redeem(uint amount) public {\n        redeemInternal(msg.sender, msg.sender, amount);\n\n        uint supplierSupplyValue;\n        uint supplierBorrowValue;\n\n        (supplierSupplyValue, supplierBorrowValue) = controller.getAccountValues(msg.sender);\n\n        require(supplierSupplyValue >= supplierBorrowValue.mul(controller.MANTISSA().add(controller.collateralFactor())).div(controller.MANTISSA()));\n\n        emit Redeem(msg.sender, amount);\n    }\n\n    function redeemInternal(address supplier, address receiver, uint amount) internal {\n        require(token.balanceOf(address(this)) >= amount);\n\n        accrueInterest();\n\n        SupplySnapshot storage supplySnapshot = supplies[supplier];\n\n        supplySnapshot.supply = updatedSupplyOf(supplier);\n        supplies[supplier].interestIndex = supplyIndex;\n\n        require(supplySnapshot.supply >= amount);\n\n        require(token.transfer(receiver, amount), \"No enough tokens\");\n\n        supplySnapshot.supply = supplySnapshot.supply.sub(amount);\n\n        totalSupply = totalSupply.sub(amount);\n    }\n\n    function borrow(uint amount) public {\n        require(token.balanceOf(address(this)) >= amount);\n\n        accrueInterest();\n\n        BorrowSnapshot storage borrowSnapshot = borrows[msg.sender];\n\n        if (borrowSnapshot.principal > 0) {\n            uint interest = borrowSnapshot.principal.mul(borrowIndex).div(borrowSnapshot.interestIndex).sub(borrowSnapshot.principal);\n\n            borrowSnapshot.principal = borrowSnapshot.principal.add(interest);\n            borrowSnapshot.interestIndex = borrowIndex;\n        }\n\n        require(controller.getAccountLiquidity(msg.sender) >= controller.prices(address(this)).mul(amount).mul(2), \"Not enough account liquidity\");\n\n        require(token.transfer(msg.sender, amount), \"No enough tokens to borrow\");\n\n        borrowSnapshot.principal = borrowSnapshot.principal.add(amount);\n        borrowSnapshot.interestIndex = borrowIndex;\n\n        totalBorrows = totalBorrows.add(amount);\n\n        emit Borrow(msg.sender, amount);\n    }\n\n    function accrueInterest() public {\n        uint currentBlockNumber = block.number;\n\n        (totalBorrows, borrowIndex) = calculateBorrowDataAtBlock(currentBlockNumber);\n        (totalSupply, supplyIndex) = calculateSupplyDataAtBlock(currentBlockNumber);\n\n        accrualBlockNumber = currentBlockNumber;\n    }\n\n    function calculateBorrowDataAtBlock(uint newBlockNumber) internal view returns (uint newTotalBorrows, uint newBorrowIndex) {\n        if (newBlockNumber <= accrualBlockNumber)\n            return (totalBorrows, borrowIndex);\n\n        if (totalBorrows == 0)\n            return (totalBorrows, borrowIndex);\n\n        uint blockDelta = newBlockNumber - accrualBlockNumber;\n\n        uint simpleInterestFactor = borrowRatePerBlock().mul(blockDelta);\n        uint interestAccumulated = simpleInterestFactor.mul(totalBorrows).div(FACTOR);\n\n        newBorrowIndex = simpleInterestFactor.mul(borrowIndex).div(FACTOR).add(borrowIndex);\n        newTotalBorrows = interestAccumulated.add(totalBorrows);\n    }\n\n    function calculateSupplyDataAtBlock(uint newBlockNumber) internal view returns (uint newTotalSupply, uint newSupplyIndex) {\n        if (newBlockNumber <= accrualBlockNumber)\n            return (totalSupply, supplyIndex);\n\n        if (totalSupply == 0)\n            return (totalSupply, supplyIndex);\n\n        uint blockDelta = newBlockNumber - accrualBlockNumber;\n\n        uint simpleInterestFactor = supplyRatePerBlock().mul(blockDelta);\n        uint interestAccumulated = simpleInterestFactor.mul(totalSupply).div(FACTOR);\n\n        newSupplyIndex = simpleInterestFactor.mul(supplyIndex).div(FACTOR).add(supplyIndex);\n        newTotalSupply = interestAccumulated.add(totalSupply);\n    }\n\n    function getUpdatedTotalBorrows() public view returns (uint) {\n        uint newTotalBorrows;\n        uint newBorrowIndex;\n\n        (newTotalBorrows, newBorrowIndex) = calculateBorrowDataAtBlock(block.number);\n\n        return newTotalBorrows;\n    }\n\n    function getUpdatedTotalSupply() public view returns (uint) {\n        uint newTotalSupply;\n        uint newSupplyIndex;\n\n        (newTotalSupply, newSupplyIndex) = calculateSupplyDataAtBlock(block.number);\n\n        return newTotalSupply;\n    }\n\n    function payBorrow(uint amount) public {\n        uint paid;\n        uint additional;\n\n        (paid, additional) = payBorrowInternal(msg.sender, msg.sender, amount);\n\n        emit PayBorrow(msg.sender, paid);\n\n        if (additional > 0)\n            emit Supply(msg.sender, additional);\n    }\n\n    function payBorrowInternal(address payer, address borrower, uint amount) internal returns (uint paid, uint supplied) {\n        accrueInterest();\n\n        BorrowSnapshot storage snapshot = borrows[borrower];\n\n        require(snapshot.principal > 0);\n\n        uint interest = snapshot.principal.mul(borrowIndex).div(snapshot.interestIndex).sub(snapshot.principal);\n\n        snapshot.principal = snapshot.principal.add(interest);\n        snapshot.interestIndex = borrowIndex;\n\n        uint additional;\n\n        if (snapshot.principal < amount) {\n            additional = amount.sub(snapshot.principal);\n            amount = snapshot.principal;\n        }\n\n        require(token.transferFrom(payer, address(this), amount), \"No enough tokens\");\n\n        snapshot.principal = snapshot.principal.sub(amount);\n        totalBorrows = totalBorrows.sub(amount);\n\n        if (additional > 0)\n            supplyInternal(payer, additional);\n\n        return (amount, additional);\n    }\n\n    function liquidateBorrow(address borrower, uint amount, MarketInterface collateralMarket) public {\n        require(amount > 0);\n        require(borrower != msg.sender);\n\n        accrueInterest();\n        collateralMarket.accrueInterest();\n\n        uint debt = updatedBorrowBy(borrower);\n\n        require(debt >= amount);\n        require(token.balanceOf(msg.sender) >= amount);\n\n        uint collateralAmount = controller.liquidateCollateral(borrower, msg.sender, amount, collateralMarket);\n\n        uint paid;\n        uint additional;\n\n        (paid, additional) = payBorrowInternal(msg.sender, borrower, amount);\n\n        emit LiquidateBorrow(borrower, paid, msg.sender, address(collateralMarket), collateralAmount);\n\n        if (additional > 0)\n            emit Supply(msg.sender, additional);\n    }\n\n    function transferTo(address sender, address receiver, uint amount) public onlyController {\n        require(amount > 0);\n        redeemInternal(sender, receiver, amount);\n    }\n}\n\n",
  "sourcePath": "/home/ronaldsg/IOV/rbank-js/dependencies/DeFiProt/contracts/Market.sol",
  "compiler": {
    "name": "solc",
    "version": "0.5.16+commit.9c3226ce.Emscripten.clang"
  },
  "schemaVersion": "3.1.0",
  "updatedAt": "2020-10-05T16:24:26.535Z",
  "devdoc": {
    "methods": {}
  },
  "userdoc": {
    "methods": {}
  }
}