{
  "contractName": "Market",
  "abi": [
    {
      "inputs": [
        {
          "internalType": "contract ERC20",
          "name": "_token",
          "type": "address"
        },
        {
          "internalType": "uint256",
          "name": "_baseBorrowAnnualRate",
          "type": "uint256"
        },
        {
          "internalType": "uint256",
          "name": "_blocksPerYear",
          "type": "uint256"
        },
        {
          "internalType": "uint256",
          "name": "_utilizationRateFraction",
          "type": "uint256"
        }
      ],
      "payable": false,
      "stateMutability": "nonpayable",
      "type": "constructor"
    },
    {
      "anonymous": false,
      "inputs": [
        {
          "indexed": true,
          "internalType": "address",
          "name": "user",
          "type": "address"
        },
        {
          "indexed": false,
          "internalType": "uint256",
          "name": "amount",
          "type": "uint256"
        }
      ],
      "name": "Borrow",
      "type": "event"
    },
    {
      "anonymous": false,
      "inputs": [
        {
          "indexed": true,
          "internalType": "address",
          "name": "borrower",
          "type": "address"
        },
        {
          "indexed": false,
          "internalType": "uint256",
          "name": "amount",
          "type": "uint256"
        },
        {
          "indexed": true,
          "internalType": "address",
          "name": "liquidator",
          "type": "address"
        },
        {
          "indexed": false,
          "internalType": "address",
          "name": "collateralMarket",
          "type": "address"
        },
        {
          "indexed": false,
          "internalType": "uint256",
          "name": "collateralAmount",
          "type": "uint256"
        }
      ],
      "name": "LiquidateBorrow",
      "type": "event"
    },
    {
      "anonymous": false,
      "inputs": [
        {
          "indexed": true,
          "internalType": "address",
          "name": "user",
          "type": "address"
        },
        {
          "indexed": false,
          "internalType": "uint256",
          "name": "amount",
          "type": "uint256"
        }
      ],
      "name": "PayBorrow",
      "type": "event"
    },
    {
      "anonymous": false,
      "inputs": [
        {
          "indexed": true,
          "internalType": "address",
          "name": "user",
          "type": "address"
        },
        {
          "indexed": false,
          "internalType": "uint256",
          "name": "amount",
          "type": "uint256"
        }
      ],
      "name": "Redeem",
      "type": "event"
    },
    {
      "anonymous": false,
      "inputs": [
        {
          "indexed": true,
          "internalType": "address",
          "name": "user",
          "type": "address"
        },
        {
          "indexed": false,
          "internalType": "uint256",
          "name": "amount",
          "type": "uint256"
        }
      ],
      "name": "Supply",
      "type": "event"
    },
    {
      "constant": true,
      "inputs": [],
      "name": "FACTOR",
      "outputs": [
        {
          "internalType": "uint256",
          "name": "",
          "type": "uint256"
        }
      ],
      "payable": false,
      "stateMutability": "view",
      "type": "function"
    },
    {
      "constant": true,
      "inputs": [],
      "name": "accrualBlockNumber",
      "outputs": [
        {
          "internalType": "uint256",
          "name": "",
          "type": "uint256"
        }
      ],
      "payable": false,
      "stateMutability": "view",
      "type": "function"
    },
    {
      "constant": true,
      "inputs": [],
      "name": "baseBorrowRate",
      "outputs": [
        {
          "internalType": "uint256",
          "name": "",
          "type": "uint256"
        }
      ],
      "payable": false,
      "stateMutability": "view",
      "type": "function"
    },
    {
      "constant": true,
      "inputs": [],
      "name": "blocksPerYear",
      "outputs": [
        {
          "internalType": "uint256",
          "name": "",
          "type": "uint256"
        }
      ],
      "payable": false,
      "stateMutability": "view",
      "type": "function"
    },
    {
      "constant": true,
      "inputs": [],
      "name": "borrowIndex",
      "outputs": [
        {
          "internalType": "uint256",
          "name": "",
          "type": "uint256"
        }
      ],
      "payable": false,
      "stateMutability": "view",
      "type": "function"
    },
    {
      "constant": true,
      "inputs": [],
      "name": "controller",
      "outputs": [
        {
          "internalType": "contract Controller",
          "name": "",
          "type": "address"
        }
      ],
      "payable": false,
      "stateMutability": "view",
      "type": "function"
    },
    {
      "constant": true,
      "inputs": [],
      "name": "owner",
      "outputs": [
        {
          "internalType": "address",
          "name": "",
          "type": "address"
        }
      ],
      "payable": false,
      "stateMutability": "view",
      "type": "function"
    },
    {
      "constant": true,
      "inputs": [],
      "name": "supplyIndex",
      "outputs": [
        {
          "internalType": "uint256",
          "name": "",
          "type": "uint256"
        }
      ],
      "payable": false,
      "stateMutability": "view",
      "type": "function"
    },
    {
      "constant": true,
      "inputs": [],
      "name": "token",
      "outputs": [
        {
          "internalType": "contract ERC20",
          "name": "",
          "type": "address"
        }
      ],
      "payable": false,
      "stateMutability": "view",
      "type": "function"
    },
    {
      "constant": true,
      "inputs": [],
      "name": "totalBorrows",
      "outputs": [
        {
          "internalType": "uint256",
          "name": "",
          "type": "uint256"
        }
      ],
      "payable": false,
      "stateMutability": "view",
      "type": "function"
    },
    {
      "constant": true,
      "inputs": [],
      "name": "totalSupply",
      "outputs": [
        {
          "internalType": "uint256",
          "name": "",
          "type": "uint256"
        }
      ],
      "payable": false,
      "stateMutability": "view",
      "type": "function"
    },
    {
      "constant": true,
      "inputs": [],
      "name": "utilizationRateFraction",
      "outputs": [
        {
          "internalType": "uint256",
          "name": "",
          "type": "uint256"
        }
      ],
      "payable": false,
      "stateMutability": "view",
      "type": "function"
    },
    {
      "constant": true,
      "inputs": [],
      "name": "getCash",
      "outputs": [
        {
          "internalType": "uint256",
          "name": "",
          "type": "uint256"
        }
      ],
      "payable": false,
      "stateMutability": "view",
      "type": "function"
    },
    {
      "constant": true,
      "inputs": [
        {
          "internalType": "uint256",
          "name": "cash",
          "type": "uint256"
        },
        {
          "internalType": "uint256",
          "name": "borrowed",
          "type": "uint256"
        },
        {
          "internalType": "uint256",
          "name": "reserves",
          "type": "uint256"
        }
      ],
      "name": "utilizationRate",
      "outputs": [
        {
          "internalType": "uint256",
          "name": "",
          "type": "uint256"
        }
      ],
      "payable": false,
      "stateMutability": "pure",
      "type": "function"
    },
    {
      "constant": true,
      "inputs": [
        {
          "internalType": "uint256",
          "name": "cash",
          "type": "uint256"
        },
        {
          "internalType": "uint256",
          "name": "borrowed",
          "type": "uint256"
        },
        {
          "internalType": "uint256",
          "name": "reserves",
          "type": "uint256"
        }
      ],
      "name": "getBorrowRate",
      "outputs": [
        {
          "internalType": "uint256",
          "name": "",
          "type": "uint256"
        }
      ],
      "payable": false,
      "stateMutability": "view",
      "type": "function"
    },
    {
      "constant": true,
      "inputs": [
        {
          "internalType": "uint256",
          "name": "cash",
          "type": "uint256"
        },
        {
          "internalType": "uint256",
          "name": "borrowed",
          "type": "uint256"
        },
        {
          "internalType": "uint256",
          "name": "reserves",
          "type": "uint256"
        }
      ],
      "name": "getSupplyRate",
      "outputs": [
        {
          "internalType": "uint256",
          "name": "",
          "type": "uint256"
        }
      ],
      "payable": false,
      "stateMutability": "view",
      "type": "function"
    },
    {
      "constant": true,
      "inputs": [],
      "name": "borrowRatePerBlock",
      "outputs": [
        {
          "internalType": "uint256",
          "name": "",
          "type": "uint256"
        }
      ],
      "payable": false,
      "stateMutability": "view",
      "type": "function"
    },
    {
      "constant": true,
      "inputs": [],
      "name": "supplyRatePerBlock",
      "outputs": [
        {
          "internalType": "uint256",
          "name": "",
          "type": "uint256"
        }
      ],
      "payable": false,
      "stateMutability": "view",
      "type": "function"
    },
    {
      "constant": true,
      "inputs": [
        {
          "internalType": "address",
          "name": "user",
          "type": "address"
        }
      ],
      "name": "supplyOf",
      "outputs": [
        {
          "internalType": "uint256",
          "name": "",
          "type": "uint256"
        }
      ],
      "payable": false,
      "stateMutability": "view",
      "type": "function"
    },
    {
      "constant": true,
      "inputs": [
        {
          "internalType": "address",
          "name": "user",
          "type": "address"
        }
      ],
      "name": "borrowBy",
      "outputs": [
        {
          "internalType": "uint256",
          "name": "",
          "type": "uint256"
        }
      ],
      "payable": false,
      "stateMutability": "view",
      "type": "function"
    },
    {
      "constant": true,
      "inputs": [
        {
          "internalType": "address",
          "name": "user",
          "type": "address"
        }
      ],
      "name": "updatedBorrowBy",
      "outputs": [
        {
          "internalType": "uint256",
          "name": "",
          "type": "uint256"
        }
      ],
      "payable": false,
      "stateMutability": "view",
      "type": "function"
    },
    {
      "constant": true,
      "inputs": [
        {
          "internalType": "address",
          "name": "user",
          "type": "address"
        }
      ],
      "name": "updatedSupplyOf",
      "outputs": [
        {
          "internalType": "uint256",
          "name": "",
          "type": "uint256"
        }
      ],
      "payable": false,
      "stateMutability": "view",
      "type": "function"
    },
    {
      "constant": false,
      "inputs": [
        {
          "internalType": "contract Controller",
          "name": "_controller",
          "type": "address"
        }
      ],
      "name": "setController",
      "outputs": [],
      "payable": false,
      "stateMutability": "nonpayable",
      "type": "function"
    },
    {
      "constant": false,
      "inputs": [
        {
          "internalType": "uint256",
          "name": "amount",
          "type": "uint256"
        }
      ],
      "name": "supply",
      "outputs": [],
      "payable": false,
      "stateMutability": "nonpayable",
      "type": "function"
    },
    {
      "constant": false,
      "inputs": [
        {
          "internalType": "uint256",
          "name": "amount",
          "type": "uint256"
        }
      ],
      "name": "redeem",
      "outputs": [],
      "payable": false,
      "stateMutability": "nonpayable",
      "type": "function"
    },
    {
      "constant": false,
      "inputs": [
        {
          "internalType": "uint256",
          "name": "amount",
          "type": "uint256"
        }
      ],
      "name": "borrow",
      "outputs": [],
      "payable": false,
      "stateMutability": "nonpayable",
      "type": "function"
    },
    {
      "constant": false,
      "inputs": [],
      "name": "accrueInterest",
      "outputs": [],
      "payable": false,
      "stateMutability": "nonpayable",
      "type": "function"
    },
    {
      "constant": true,
      "inputs": [],
      "name": "getUpdatedTotalBorrows",
      "outputs": [
        {
          "internalType": "uint256",
          "name": "",
          "type": "uint256"
        }
      ],
      "payable": false,
      "stateMutability": "view",
      "type": "function"
    },
    {
      "constant": true,
      "inputs": [],
      "name": "getUpdatedTotalSupply",
      "outputs": [
        {
          "internalType": "uint256",
          "name": "",
          "type": "uint256"
        }
      ],
      "payable": false,
      "stateMutability": "view",
      "type": "function"
    },
    {
      "constant": false,
      "inputs": [
        {
          "internalType": "uint256",
          "name": "amount",
          "type": "uint256"
        }
      ],
      "name": "payBorrow",
      "outputs": [],
      "payable": false,
      "stateMutability": "nonpayable",
      "type": "function"
    },
    {
      "constant": false,
      "inputs": [
        {
          "internalType": "address",
          "name": "borrower",
          "type": "address"
        },
        {
          "internalType": "uint256",
          "name": "amount",
          "type": "uint256"
        },
        {
          "internalType": "contract MarketInterface",
          "name": "collateralMarket",
          "type": "address"
        }
      ],
      "name": "liquidateBorrow",
      "outputs": [],
      "payable": false,
      "stateMutability": "nonpayable",
      "type": "function"
    },
    {
      "constant": false,
      "inputs": [
        {
          "internalType": "address",
          "name": "sender",
          "type": "address"
        },
        {
          "internalType": "address",
          "name": "receiver",
          "type": "address"
        },
        {
          "internalType": "uint256",
          "name": "amount",
          "type": "uint256"
        }
      ],
      "name": "transferTo",
      "outputs": [],
      "payable": false,
      "stateMutability": "nonpayable",
      "type": "function"
    }
  ],
  "bytecode": "0x60806040523480156200001157600080fd5b5060405162002b6038038062002b60833981810160405260808110156200003757600080fd5b810190808051906020019092919080519060200190929190805190602001909291908051906020019092919050505060008473ffffffffffffffffffffffffffffffffffffffff166318160ddd6040518163ffffffff1660e01b815260040160206040518083038186803b158015620000af57600080fd5b505afa158015620000c4573d6000803e3d6000fd5b505050506040513d6020811015620000db57600080fd5b81019080805190602001909291905050501015620000f857600080fd5b336000806101000a81548173ffffffffffffffffffffffffffffffffffffffff021916908373ffffffffffffffffffffffffffffffffffffffff16021790555083600160006101000a81548173ffffffffffffffffffffffffffffffffffffffff021916908373ffffffffffffffffffffffffffffffffffffffff160217905550670de0b6b3a7640000600681905550670de0b6b3a764000060048190555081600a81905550620001b88284620001ef60201b62001de41790919060201c565b60088190555043600581905550620001df8282620001ef60201b62001de41790919060201c565b6009819055505050505062000204565b6000818381620001fb57fe5b04905092915050565b61294c80620002146000396000f3fe608060405234801561001057600080fd5b50600436106101f05760003560e01c8063a5f2a1521161010f578063c5ebeaec116100a2578063f5e3c46211610071578063f5e3c4621461079b578063f77c479114610809578063f8f9da2814610853578063fc0c546a14610871576101f0565b8063c5ebeaec146106b9578063db006a75146106e7578063e681dc7114610715578063f5d1b7e81461076d576101f0565b8063ae9d70b0116100de578063ae9d70b014610641578063b7098eea1461065f578063bf3866821461067d578063c2b170cb1461069b576101f0565b8063a5f2a15214610553578063a6afed95146105c1578063aa5af0fd146105cb578063ad8feadb146105e9576101f0565b806362400e4c116101875780638da5cb5b116101565780638da5cb5b1461048957806392eefe9b146104d357806398f1bc1214610517578063a385fb9614610535576101f0565b806362400e4c1461039f5780636c540baf146103f75780636e71e2d81461041557806378f1dc031461046b576101f0565b806335815b95116101c357806335815b95146102ef5780633b1d21a21461030d57806347bd37181461032b5780634a31964714610349576101f0565b806315f24053146101f557806318160ddd1461024b5780632aad6aa81461026957806335403023146102c1575b600080fd5b6102356004803603606081101561020b57600080fd5b810190808035906020019092919080359060200190929190803590602001909291905050506108bb565b6040518082815260200191505060405180910390f35b610253610918565b6040518082815260200191505060405180910390f35b6102ab6004803603602081101561027f57600080fd5b81019080803573ffffffffffffffffffffffffffffffffffffffff16906020019092919050505061091e565b6040518082815260200191505060405180910390f35b6102ed600480360360208110156102d757600080fd5b81019080803590602001909291905050506109c5565b005b6102f7610a20565b6040518082815260200191505060405180910390f35b610315610a2c565b6040518082815260200191505060405180910390f35b610333610b0d565b6040518082815260200191505060405180910390f35b6103896004803603606081101561035f57600080fd5b81019080803590602001909291908035906020019092919080359060200190929190505050610b13565b6040518082815260200191505060405180910390f35b6103e1600480360360208110156103b557600080fd5b81019080803573ffffffffffffffffffffffffffffffffffffffff169060200190929190505050610b64565b6040518082815260200191505060405180910390f35b6103ff610bb0565b6040518082815260200191505060405180910390f35b6104556004803603606081101561042b57600080fd5b81019080803590602001909291908035906020019092919080359060200190929190505050610bb6565b6040518082815260200191505060405180910390f35b610473610c24565b6040518082815260200191505060405180910390f35b610491610c42565b604051808273ffffffffffffffffffffffffffffffffffffffff1673ffffffffffffffffffffffffffffffffffffffff16815260200191505060405180910390f35b610515600480360360208110156104e957600080fd5b81019080803573ffffffffffffffffffffffffffffffffffffffff169060200190929190505050610c67565b005b61051f610d04565b6040518082815260200191505060405180910390f35b61053d610d0a565b6040518082815260200191505060405180910390f35b6105bf6004803603606081101561056957600080fd5b81019080803573ffffffffffffffffffffffffffffffffffffffff169060200190929190803573ffffffffffffffffffffffffffffffffffffffff16906020019092919080359060200190929190505050610d10565b005b6105c9610d87565b005b6105d3610dd0565b6040518082815260200191505060405180910390f35b61062b600480360360208110156105ff57600080fd5b81019080803573ffffffffffffffffffffffffffffffffffffffff169060200190929190505050610dd6565b6040518082815260200191505060405180910390f35b610649610e22565b6040518082815260200191505060405180910390f35b610667610e3e565b6040518082815260200191505060405180910390f35b610685610e44565b6040518082815260200191505060405180910390f35b6106a3610e4a565b6040518082815260200191505060405180910390f35b6106e5600480360360208110156106cf57600080fd5b8101908080359060200190929190505050610e68565b005b610713600480360360208110156106fd57600080fd5b8101908080359060200190929190505050611455565b005b6107576004803603602081101561072b57600080fd5b81019080803573ffffffffffffffffffffffffffffffffffffffff1690602001909291905050506117ca565b6040518082815260200191505060405180910390f35b6107996004803603602081101561078357600080fd5b8101908080359060200190929190505050611871565b005b610807600480360360608110156107b157600080fd5b81019080803573ffffffffffffffffffffffffffffffffffffffff16906020019092919080359060200190929190803573ffffffffffffffffffffffffffffffffffffffff169060200190929190505050611932565b005b610811611d48565b604051808273ffffffffffffffffffffffffffffffffffffffff1673ffffffffffffffffffffffffffffffffffffffff16815260200191505060405180910390f35b61085b611d6e565b6040518082815260200191505060405180910390f35b610879611d8a565b604051808273ffffffffffffffffffffffffffffffffffffffff1673ffffffffffffffffffffffffffffffffffffffff16815260200191505060405180910390f35b6000806108c9858585610bb6565b905061090e600854610900670de0b6b3a76400006108f260095486611db090919063ffffffff16565b611de490919063ffffffff16565b611df890919063ffffffff16565b9150509392505050565b60035481565b600080600c60008473ffffffffffffffffffffffffffffffffffffffff1673ffffffffffffffffffffffffffffffffffffffff16815260200190815260200160002090506000816000015414156109795760009150506109c0565b60008061098543611e12565b80925081935050506109ba83600101546109ac838660000154611db090919063ffffffff16565b611de490919063ffffffff16565b93505050505b919050565b6109cf3382611f06565b3373ffffffffffffffffffffffffffffffffffffffff167fadacf827efe383160192c092d8658471945c074229a9746679b5e2b74adff191826040518082815260200191505060405180910390a250565b670de0b6b3a764000081565b6000600160009054906101000a900473ffffffffffffffffffffffffffffffffffffffff1673ffffffffffffffffffffffffffffffffffffffff166370a08231306040518263ffffffff1660e01b8152600401808273ffffffffffffffffffffffffffffffffffffffff1673ffffffffffffffffffffffffffffffffffffffff16815260200191505060206040518083038186803b158015610acd57600080fd5b505afa158015610ae1573d6000803e3d6000fd5b505050506040513d6020811015610af757600080fd5b8101908080519060200190929190505050905090565b60075481565b600080610b218585856108bb565b9050610b5a670de0b6b3a7640000610b4c83610b3e898989610bb6565b611db090919063ffffffff16565b611de490919063ffffffff16565b9150509392505050565b6000600b60008373ffffffffffffffffffffffffffffffffffffffff1673ffffffffffffffffffffffffffffffffffffffff168152602001908152602001600020600001549050919050565b60055481565b600080831415610bc95760009050610c1d565b610c1a610bf183610be38688611df890919063ffffffff16565b6121f090919063ffffffff16565b610c0c670de0b6b3a764000086611db090919063ffffffff16565b611de490919063ffffffff16565b90505b9392505050565b6000806000610c3243611e12565b8092508193505050819250505090565b6000809054906101000a900473ffffffffffffffffffffffffffffffffffffffff1681565b6000809054906101000a900473ffffffffffffffffffffffffffffffffffffffff1673ffffffffffffffffffffffffffffffffffffffff163373ffffffffffffffffffffffffffffffffffffffff1614610cc057600080fd5b80600260006101000a81548173ffffffffffffffffffffffffffffffffffffffff021916908373ffffffffffffffffffffffffffffffffffffffff16021790555050565b60045481565b600a5481565b600260009054906101000a900473ffffffffffffffffffffffffffffffffffffffff1673ffffffffffffffffffffffffffffffffffffffff163373ffffffffffffffffffffffffffffffffffffffff1614610d6a57600080fd5b60008111610d7757600080fd5b610d82838383612207565b505050565b6000439050610d9581611e12565b6007600060066000849190505583919050555050610db281612539565b60036000600460008491905055839190505550508060058190555050565b60065481565b6000600c60008373ffffffffffffffffffffffffffffffffffffffff1673ffffffffffffffffffffffffffffffffffffffff168152602001908152602001600020600001549050919050565b6000610e39610e2f610a2c565b6007546000610b13565b905090565b60095481565b60085481565b6000806000610e5843612539565b8092508193505050819250505090565b80600160009054906101000a900473ffffffffffffffffffffffffffffffffffffffff1673ffffffffffffffffffffffffffffffffffffffff166370a08231306040518263ffffffff1660e01b8152600401808273ffffffffffffffffffffffffffffffffffffffff1673ffffffffffffffffffffffffffffffffffffffff16815260200191505060206040518083038186803b158015610f0857600080fd5b505afa158015610f1c573d6000803e3d6000fd5b505050506040513d6020811015610f3257600080fd5b81019080805190602001909291905050501015610f4e57600080fd5b610f56610d87565b6000600c60003373ffffffffffffffffffffffffffffffffffffffff1673ffffffffffffffffffffffffffffffffffffffff168152602001908152602001600020905060008160000154111561101b576000610fed8260000154610fdf8460010154610fd16006548760000154611db090919063ffffffff16565b611de490919063ffffffff16565b6121f090919063ffffffff16565b9050611006818360000154611df890919063ffffffff16565b82600001819055506006548260010181905550505b61111a600261110c84600260009054906101000a900473ffffffffffffffffffffffffffffffffffffffff1673ffffffffffffffffffffffffffffffffffffffff1663cfed246b306040518263ffffffff1660e01b8152600401808273ffffffffffffffffffffffffffffffffffffffff1673ffffffffffffffffffffffffffffffffffffffff16815260200191505060206040518083038186803b1580156110c357600080fd5b505afa1580156110d7573d6000803e3d6000fd5b505050506040513d60208110156110ed57600080fd5b8101908080519060200190929190505050611db090919063ffffffff16565b611db090919063ffffffff16565b600260009054906101000a900473ffffffffffffffffffffffffffffffffffffffff1673ffffffffffffffffffffffffffffffffffffffff16635ec88c79336040518263ffffffff1660e01b8152600401808273ffffffffffffffffffffffffffffffffffffffff1673ffffffffffffffffffffffffffffffffffffffff16815260200191505060206040518083038186803b1580156111b957600080fd5b505afa1580156111cd573d6000803e3d6000fd5b505050506040513d60208110156111e357600080fd5b81019080805190602001909291905050501015611268576040517f08c379a000000000000000000000000000000000000000000000000000000000815260040180806020018281038252601c8152602001807f4e6f7420656e6f756768206163636f756e74206c69717569646974790000000081525060200191505060405180910390fd5b600160009054906101000a900473ffffffffffffffffffffffffffffffffffffffff1673ffffffffffffffffffffffffffffffffffffffff1663a9059cbb33846040518363ffffffff1660e01b8152600401808373ffffffffffffffffffffffffffffffffffffffff1673ffffffffffffffffffffffffffffffffffffffff16815260200182815260200192505050602060405180830381600087803b15801561131157600080fd5b505af1158015611325573d6000803e3d6000fd5b505050506040513d602081101561133b57600080fd5b81019080805190602001909291905050506113be576040517f08c379a000000000000000000000000000000000000000000000000000000000815260040180806020018281038252601a8152602001807f4e6f20656e6f75676820746f6b656e7320746f20626f72726f7700000000000081525060200191505060405180910390fd5b6113d5828260000154611df890919063ffffffff16565b816000018190555060065481600101819055506113fd82600754611df890919063ffffffff16565b6007819055503373ffffffffffffffffffffffffffffffffffffffff167fcbc04eca7e9da35cb1393a6135a199ca52e450d5e9251cbd99f7847d33a36750836040518082815260200191505060405180910390a25050565b611460333383612207565b600080600260009054906101000a900473ffffffffffffffffffffffffffffffffffffffff1673ffffffffffffffffffffffffffffffffffffffff16633baadca0336040518263ffffffff1660e01b8152600401808273ffffffffffffffffffffffffffffffffffffffff1673ffffffffffffffffffffffffffffffffffffffff168152602001915050604080518083038186803b15801561150157600080fd5b505afa158015611515573d6000803e3d6000fd5b505050506040513d604081101561152b57600080fd5b810190808051906020019092919080519060200190929190505050809250819350505061176b600260009054906101000a900473ffffffffffffffffffffffffffffffffffffffff1673ffffffffffffffffffffffffffffffffffffffff16632703984c6040518163ffffffff1660e01b815260040160206040518083038186803b1580156115b957600080fd5b505afa1580156115cd573d6000803e3d6000fd5b505050506040513d60208110156115e357600080fd5b810190808051906020019092919050505061175d61174e600260009054906101000a900473ffffffffffffffffffffffffffffffffffffffff1673ffffffffffffffffffffffffffffffffffffffff1663df011c416040518163ffffffff1660e01b815260040160206040518083038186803b15801561166257600080fd5b505afa158015611676573d6000803e3d6000fd5b505050506040513d602081101561168c57600080fd5b8101908080519060200190929190505050600260009054906101000a900473ffffffffffffffffffffffffffffffffffffffff1673ffffffffffffffffffffffffffffffffffffffff16632703984c6040518163ffffffff1660e01b815260040160206040518083038186803b15801561170557600080fd5b505afa158015611719573d6000803e3d6000fd5b505050506040513d602081101561172f57600080fd5b8101908080519060200190929190505050611df890919063ffffffff16565b84611db090919063ffffffff16565b611de490919063ffffffff16565b82101561177757600080fd5b3373ffffffffffffffffffffffffffffffffffffffff167f222838db2794d11532d940e8dec38ae307ed0b63cd97c233322e221f998767a6846040518082815260200191505060405180910390a2505050565b600080600b60008473ffffffffffffffffffffffffffffffffffffffff1673ffffffffffffffffffffffffffffffffffffffff168152602001908152602001600020905060008160000154141561182557600091505061186c565b60008061183143612539565b80925081935050506118668360010154611858838660000154611db090919063ffffffff16565b611de490919063ffffffff16565b93505050505b919050565b60008061187f33338561262d565b80925081935050503373ffffffffffffffffffffffffffffffffffffffff167f7d216a33e7cc5fdf358cc861228a39d01156282257a57a6ad1e2ca69953fd704836040518082815260200191505060405180910390a2600081111561192d573373ffffffffffffffffffffffffffffffffffffffff167fadacf827efe383160192c092d8658471945c074229a9746679b5e2b74adff191826040518082815260200191505060405180910390a25b505050565b6000821161193f57600080fd5b3373ffffffffffffffffffffffffffffffffffffffff168373ffffffffffffffffffffffffffffffffffffffff16141561197857600080fd5b611980610d87565b8073ffffffffffffffffffffffffffffffffffffffff1663a6afed956040518163ffffffff1660e01b8152600401600060405180830381600087803b1580156119c857600080fd5b505af11580156119dc573d6000803e3d6000fd5b5050505060006119eb8461091e565b9050828110156119fa57600080fd5b82600160009054906101000a900473ffffffffffffffffffffffffffffffffffffffff1673ffffffffffffffffffffffffffffffffffffffff166370a08231336040518263ffffffff1660e01b8152600401808273ffffffffffffffffffffffffffffffffffffffff1673ffffffffffffffffffffffffffffffffffffffff16815260200191505060206040518083038186803b158015611a9a57600080fd5b505afa158015611aae573d6000803e3d6000fd5b505050506040513d6020811015611ac457600080fd5b81019080805190602001909291905050501015611ae057600080fd5b6000600260009054906101000a900473ffffffffffffffffffffffffffffffffffffffff1673ffffffffffffffffffffffffffffffffffffffff16633bb54d7e863387876040518563ffffffff1660e01b8152600401808573ffffffffffffffffffffffffffffffffffffffff1673ffffffffffffffffffffffffffffffffffffffff1681526020018473ffffffffffffffffffffffffffffffffffffffff1673ffffffffffffffffffffffffffffffffffffffff1681526020018381526020018273ffffffffffffffffffffffffffffffffffffffff1673ffffffffffffffffffffffffffffffffffffffff168152602001945050505050602060405180830381600087803b158015611bf357600080fd5b505af1158015611c07573d6000803e3d6000fd5b505050506040513d6020811015611c1d57600080fd5b81019080805190602001909291905050509050600080611c3e33888861262d565b80925081935050503373ffffffffffffffffffffffffffffffffffffffff168773ffffffffffffffffffffffffffffffffffffffff167f982b5ad15c880b722c6f577cb6e10dfd0bfb2a82c5c1d3ee6ee4cecc9d535428848887604051808481526020018373ffffffffffffffffffffffffffffffffffffffff1673ffffffffffffffffffffffffffffffffffffffff168152602001828152602001935050505060405180910390a36000811115611d3f573373ffffffffffffffffffffffffffffffffffffffff167fadacf827efe383160192c092d8658471945c074229a9746679b5e2b74adff191826040518082815260200191505060405180910390a25b50505050505050565b600260009054906101000a900473ffffffffffffffffffffffffffffffffffffffff1681565b6000611d85611d7b610a2c565b60075460006108bb565b905090565b600160009054906101000a900473ffffffffffffffffffffffffffffffffffffffff1681565b600080831415611dc35760009050611dde565b818302905081838281611dd257fe5b0414611dda57fe5b8090505b92915050565b6000818381611def57fe5b04905092915050565b6000818301905082811015611e0957fe5b80905092915050565b6000806005548311611e2d5760075460065491509150611f01565b60006007541415611e475760075460065491509150611f01565b6000600554840390506000611e6c82611e5e611d6e565b611db090919063ffffffff16565b90506000611e9f670de0b6b3a7640000611e9160075485611db090919063ffffffff16565b611de490919063ffffffff16565b9050611ee4600654611ed6670de0b6b3a7640000611ec860065487611db090919063ffffffff16565b611de490919063ffffffff16565b611df890919063ffffffff16565b9350611efb60075482611df890919063ffffffff16565b94505050505b915091565b600160009054906101000a900473ffffffffffffffffffffffffffffffffffffffff1673ffffffffffffffffffffffffffffffffffffffff166323b872dd8330846040518463ffffffff1660e01b8152600401808473ffffffffffffffffffffffffffffffffffffffff1673ffffffffffffffffffffffffffffffffffffffff1681526020018373ffffffffffffffffffffffffffffffffffffffff1673ffffffffffffffffffffffffffffffffffffffff1681526020018281526020019350505050602060405180830381600087803b158015611fe357600080fd5b505af1158015611ff7573d6000803e3d6000fd5b505050506040513d602081101561200d57600080fd5b8101908080519060200190929190505050612090576040517f08c379a00000000000000000000000000000000000000000000000000000000081526004018080602001828103825260108152602001807f4e6f20656e6f75676820746f6b656e730000000000000000000000000000000081525060200191505060405180910390fd5b612098610d87565b6000600b60008473ffffffffffffffffffffffffffffffffffffffff1673ffffffffffffffffffffffffffffffffffffffff16815260200190815260200160002090506120e4836117ca565b816000018190555061214182600b60008673ffffffffffffffffffffffffffffffffffffffff1673ffffffffffffffffffffffffffffffffffffffff16815260200190815260200160002060000154611df890919063ffffffff16565b600b60008573ffffffffffffffffffffffffffffffffffffffff1673ffffffffffffffffffffffffffffffffffffffff16815260200190815260200160002060000181905550600454600b60008573ffffffffffffffffffffffffffffffffffffffff1673ffffffffffffffffffffffffffffffffffffffff168152602001908152602001600020600101819055506121e582600354611df890919063ffffffff16565b600381905550505050565b6000828211156121fc57fe5b818303905092915050565b80600160009054906101000a900473ffffffffffffffffffffffffffffffffffffffff1673ffffffffffffffffffffffffffffffffffffffff166370a08231306040518263ffffffff1660e01b8152600401808273ffffffffffffffffffffffffffffffffffffffff1673ffffffffffffffffffffffffffffffffffffffff16815260200191505060206040518083038186803b1580156122a757600080fd5b505afa1580156122bb573d6000803e3d6000fd5b505050506040513d60208110156122d157600080fd5b810190808051906020019092919050505010156122ed57600080fd5b6122f5610d87565b6000600b60008573ffffffffffffffffffffffffffffffffffffffff1673ffffffffffffffffffffffffffffffffffffffff1681526020019081526020016000209050612341846117ca565b8160000181905550600454600b60008673ffffffffffffffffffffffffffffffffffffffff1673ffffffffffffffffffffffffffffffffffffffff1681526020019081526020016000206001018190555081816000015410156123a357600080fd5b600160009054906101000a900473ffffffffffffffffffffffffffffffffffffffff1673ffffffffffffffffffffffffffffffffffffffff1663a9059cbb84846040518363ffffffff1660e01b8152600401808373ffffffffffffffffffffffffffffffffffffffff1673ffffffffffffffffffffffffffffffffffffffff16815260200182815260200192505050602060405180830381600087803b15801561244c57600080fd5b505af1158015612460573d6000803e3d6000fd5b505050506040513d602081101561247657600080fd5b81019080805190602001909291905050506124f9576040517f08c379a00000000000000000000000000000000000000000000000000000000081526004018080602001828103825260108152602001807f4e6f20656e6f75676820746f6b656e730000000000000000000000000000000081525060200191505060405180910390fd5b6125108282600001546121f090919063ffffffff16565b816000018190555061252d826003546121f090919063ffffffff16565b60038190555050505050565b60008060055483116125545760035460045491509150612628565b6000600354141561256e5760035460045491509150612628565b600060055484039050600061259382612585610e22565b611db090919063ffffffff16565b905060006125c6670de0b6b3a76400006125b860035485611db090919063ffffffff16565b611de490919063ffffffff16565b905061260b6004546125fd670de0b6b3a76400006125ef60045487611db090919063ffffffff16565b611de490919063ffffffff16565b611df890919063ffffffff16565b935061262260035482611df890919063ffffffff16565b94505050505b915091565b600080612638610d87565b6000600c60008673ffffffffffffffffffffffffffffffffffffffff1673ffffffffffffffffffffffffffffffffffffffff1681526020019081526020016000209050600081600001541161268c57600080fd5b60006126d382600001546126c584600101546126b76006548760000154611db090919063ffffffff16565b611de490919063ffffffff16565b6121f090919063ffffffff16565b90506126ec818360000154611df890919063ffffffff16565b826000018190555060065482600101819055506000858360000154101561272e576127248360000154876121f090919063ffffffff16565b9050826000015495505b600160009054906101000a900473ffffffffffffffffffffffffffffffffffffffff1673ffffffffffffffffffffffffffffffffffffffff166323b872dd8930896040518463ffffffff1660e01b8152600401808473ffffffffffffffffffffffffffffffffffffffff1673ffffffffffffffffffffffffffffffffffffffff1681526020018373ffffffffffffffffffffffffffffffffffffffff1673ffffffffffffffffffffffffffffffffffffffff1681526020018281526020019350505050602060405180830381600087803b15801561280b57600080fd5b505af115801561281f573d6000803e3d6000fd5b505050506040513d602081101561283557600080fd5b81019080805190602001909291905050506128b8576040517f08c379a00000000000000000000000000000000000000000000000000000000081526004018080602001828103825260108152602001807f4e6f20656e6f75676820746f6b656e730000000000000000000000000000000081525060200191505060405180910390fd5b6128cf8684600001546121f090919063ffffffff16565b83600001819055506128ec866007546121f090919063ffffffff16565b6007819055506000811115612906576129058882611f06565b5b85819450945050505093509391505056fea265627a7a72315820b284b05ed8f5d3102f883ae84afd97f5edd326a40faa1df50035acbef6aaa11564736f6c63430005100032",
  "source": "pragma solidity >=0.5.0 <0.6.0;\n\nimport \"./test/ERC20.sol\";\nimport \"./Controller.sol\";\nimport \"./test/SafeMath.sol\";\n\ncontract Market is MarketInterface {\n    using SafeMath for uint256;\n\n    address public owner;\n\n    ERC20 public token;\n    Controller public controller;\n\n    uint public totalSupply;\n\n    uint public supplyIndex;\n\n    uint public accrualBlockNumber;\n\n    uint public borrowIndex;\n    uint public totalBorrows;\n    uint public baseBorrowRate;\n    uint public utilizationRateFraction;\n\n    uint public blocksPerYear;\n\n    struct SupplySnapshot {\n        uint supply;\n        uint interestIndex;\n    }\n\n    struct BorrowSnapshot {\n        uint principal;\n        uint interestIndex;\n    }\n\n    mapping (address => SupplySnapshot) supplies;\n    mapping (address => BorrowSnapshot) borrows;\n\n    uint public constant FACTOR = 1e18;\n\n    event Supply(address indexed user, uint amount);\n    event Redeem(address indexed user, uint amount);\n    event Borrow(address indexed user, uint amount);\n    event PayBorrow(address indexed user, uint amount);\n    event LiquidateBorrow(address indexed borrower, uint amount, address indexed liquidator, address collateralMarket, uint collateralAmount);\n\n    constructor(ERC20 _token, uint _baseBorrowAnnualRate, uint _blocksPerYear, uint _utilizationRateFraction) public {\n        require(ERC20(_token).totalSupply() >= 0);\n        owner = msg.sender;\n        token = _token;\n        borrowIndex = FACTOR;\n        supplyIndex = FACTOR;\n        blocksPerYear = _blocksPerYear;\n        baseBorrowRate = _baseBorrowAnnualRate.div(_blocksPerYear);\n        accrualBlockNumber = block.number;\n        utilizationRateFraction = _utilizationRateFraction.div(_blocksPerYear);\n    }\n\n    modifier onlyOwner() {\n        require(msg.sender == owner);\n        _;\n    }\n\n    modifier onlyController() {\n        require(msg.sender == address(controller));\n        _;\n    }\n\n    function getCash() public view returns (uint) {\n        return token.balanceOf(address(this));\n    }\n\n    function utilizationRate(uint cash, uint borrowed, uint reserves) public pure returns (uint) {\n        if (borrowed == 0)\n            return 0;\n\n        return borrowed.mul(FACTOR).div(cash.add(borrowed).sub(reserves));\n    }\n\n    function getBorrowRate(uint cash, uint borrowed, uint reserves) public view returns (uint) {\n        uint ur = utilizationRate(cash, borrowed, reserves);\n\n        return ur.mul(utilizationRateFraction).div(FACTOR).add(baseBorrowRate);\n    }\n\n    function getSupplyRate(uint cash, uint borrowed, uint reserves) public view returns (uint) {\n        uint borrowRate = getBorrowRate(cash, borrowed, reserves);\n\n        return utilizationRate(cash, borrowed, reserves).mul(borrowRate).div(FACTOR);\n    }\n\n    function borrowRatePerBlock() public view returns (uint) {\n        return getBorrowRate(getCash(), totalBorrows, 0);\n    }\n\n    function supplyRatePerBlock() public view returns (uint) {\n        return getSupplyRate(getCash(), totalBorrows, 0);\n    }\n\n    function supplyOf(address user) public view returns (uint) {\n        return supplies[user].supply;\n    }\n\n    function borrowBy(address user) public view returns (uint) {\n        return borrows[user].principal;\n    }\n\n    function updatedBorrowBy(address user) public view returns (uint) {\n        BorrowSnapshot storage snapshot = borrows[user];\n\n        if (snapshot.principal == 0)\n            return 0;\n\n        uint newTotalBorrows;\n        uint newBorrowIndex;\n\n        (newTotalBorrows, newBorrowIndex) = calculateBorrowDataAtBlock(block.number);\n\n        return snapshot.principal.mul(newBorrowIndex).div(snapshot.interestIndex);\n    }\n\n    function updatedSupplyOf(address user) public view returns (uint) {\n        SupplySnapshot storage snapshot = supplies[user];\n\n        if (snapshot.supply == 0)\n            return 0;\n\n        uint newTotalSupply;\n        uint newSupplyIndex;\n\n        (newTotalSupply, newSupplyIndex) = calculateSupplyDataAtBlock(block.number);\n\n        return snapshot.supply.mul(newSupplyIndex).div(snapshot.interestIndex);\n    }\n\n    function setController(Controller _controller) public onlyOwner {\n        controller = _controller;\n    }\n\n    function supply(uint amount) public {\n        supplyInternal(msg.sender, amount);\n\n        emit Supply(msg.sender, amount);\n    }\n\n    function supplyInternal(address supplier, uint amount) internal {\n        // TODO check msg.sender != this\n        require(token.transferFrom(supplier, address(this), amount), \"No enough tokens\");\n\n        accrueInterest();\n\n        SupplySnapshot storage supplySnapshot = supplies[supplier];\n\n        supplySnapshot.supply = updatedSupplyOf(supplier);\n        supplies[supplier].supply = supplies[supplier].supply.add(amount);\n        supplies[supplier].interestIndex = supplyIndex;\n\n        totalSupply = totalSupply.add(amount);\n    }\n\n    function redeem(uint amount) public {\n        redeemInternal(msg.sender, msg.sender, amount);\n\n        uint supplierSupplyValue;\n        uint supplierBorrowValue;\n\n        (supplierSupplyValue, supplierBorrowValue) = controller.getAccountValues(msg.sender);\n\n        require(supplierSupplyValue >= supplierBorrowValue.mul(controller.MANTISSA().add(controller.collateralFactor())).div(controller.MANTISSA()));\n\n        emit Redeem(msg.sender, amount);\n    }\n\n    function redeemInternal(address supplier, address receiver, uint amount) internal {\n        require(token.balanceOf(address(this)) >= amount);\n\n        accrueInterest();\n\n        SupplySnapshot storage supplySnapshot = supplies[supplier];\n\n        supplySnapshot.supply = updatedSupplyOf(supplier);\n        supplies[supplier].interestIndex = supplyIndex;\n\n        require(supplySnapshot.supply >= amount);\n\n        require(token.transfer(receiver, amount), \"No enough tokens\");\n\n        supplySnapshot.supply = supplySnapshot.supply.sub(amount);\n\n        totalSupply = totalSupply.sub(amount);\n    }\n\n    function borrow(uint amount) public {\n        require(token.balanceOf(address(this)) >= amount);\n\n        accrueInterest();\n\n        BorrowSnapshot storage borrowSnapshot = borrows[msg.sender];\n\n        if (borrowSnapshot.principal > 0) {\n            uint interest = borrowSnapshot.principal.mul(borrowIndex).div(borrowSnapshot.interestIndex).sub(borrowSnapshot.principal);\n\n            borrowSnapshot.principal = borrowSnapshot.principal.add(interest);\n            borrowSnapshot.interestIndex = borrowIndex;\n        }\n\n        require(controller.getAccountLiquidity(msg.sender) >= controller.prices(address(this)).mul(amount).mul(2), \"Not enough account liquidity\");\n\n        require(token.transfer(msg.sender, amount), \"No enough tokens to borrow\");\n\n        borrowSnapshot.principal = borrowSnapshot.principal.add(amount);\n        borrowSnapshot.interestIndex = borrowIndex;\n\n        totalBorrows = totalBorrows.add(amount);\n\n        emit Borrow(msg.sender, amount);\n    }\n\n    function accrueInterest() public {\n        uint currentBlockNumber = block.number;\n\n        (totalBorrows, borrowIndex) = calculateBorrowDataAtBlock(currentBlockNumber);\n        (totalSupply, supplyIndex) = calculateSupplyDataAtBlock(currentBlockNumber);\n\n        accrualBlockNumber = currentBlockNumber;\n    }\n\n    function calculateBorrowDataAtBlock(uint newBlockNumber) internal view returns (uint newTotalBorrows, uint newBorrowIndex) {\n        if (newBlockNumber <= accrualBlockNumber)\n            return (totalBorrows, borrowIndex);\n\n        if (totalBorrows == 0)\n            return (totalBorrows, borrowIndex);\n\n        uint blockDelta = newBlockNumber - accrualBlockNumber;\n\n        uint simpleInterestFactor = borrowRatePerBlock().mul(blockDelta);\n        uint interestAccumulated = simpleInterestFactor.mul(totalBorrows).div(FACTOR);\n\n        newBorrowIndex = simpleInterestFactor.mul(borrowIndex).div(FACTOR).add(borrowIndex);\n        newTotalBorrows = interestAccumulated.add(totalBorrows);\n    }\n\n    function calculateSupplyDataAtBlock(uint newBlockNumber) internal view returns (uint newTotalSupply, uint newSupplyIndex) {\n        if (newBlockNumber <= accrualBlockNumber)\n            return (totalSupply, supplyIndex);\n\n        if (totalSupply == 0)\n            return (totalSupply, supplyIndex);\n\n        uint blockDelta = newBlockNumber - accrualBlockNumber;\n\n        uint simpleInterestFactor = supplyRatePerBlock().mul(blockDelta);\n        uint interestAccumulated = simpleInterestFactor.mul(totalSupply).div(FACTOR);\n\n        newSupplyIndex = simpleInterestFactor.mul(supplyIndex).div(FACTOR).add(supplyIndex);\n        newTotalSupply = interestAccumulated.add(totalSupply);\n    }\n\n    function getUpdatedTotalBorrows() public view returns (uint) {\n        uint newTotalBorrows;\n        uint newBorrowIndex;\n\n        (newTotalBorrows, newBorrowIndex) = calculateBorrowDataAtBlock(block.number);\n\n        return newTotalBorrows;\n    }\n\n    function getUpdatedTotalSupply() public view returns (uint) {\n        uint newTotalSupply;\n        uint newSupplyIndex;\n\n        (newTotalSupply, newSupplyIndex) = calculateSupplyDataAtBlock(block.number);\n\n        return newTotalSupply;\n    }\n\n    function payBorrow(uint amount) public {\n        uint paid;\n        uint additional;\n\n        (paid, additional) = payBorrowInternal(msg.sender, msg.sender, amount);\n\n        emit PayBorrow(msg.sender, paid);\n\n        if (additional > 0)\n            emit Supply(msg.sender, additional);\n    }\n\n    function payBorrowInternal(address payer, address borrower, uint amount) internal returns (uint paid, uint supplied) {\n        accrueInterest();\n\n        BorrowSnapshot storage snapshot = borrows[borrower];\n\n        require(snapshot.principal > 0);\n\n        uint interest = snapshot.principal.mul(borrowIndex).div(snapshot.interestIndex).sub(snapshot.principal);\n\n        snapshot.principal = snapshot.principal.add(interest);\n        snapshot.interestIndex = borrowIndex;\n\n        uint additional;\n\n        if (snapshot.principal < amount) {\n            additional = amount.sub(snapshot.principal);\n            amount = snapshot.principal;\n        }\n\n        require(token.transferFrom(payer, address(this), amount), \"No enough tokens\");\n\n        snapshot.principal = snapshot.principal.sub(amount);\n        totalBorrows = totalBorrows.sub(amount);\n\n        if (additional > 0)\n            supplyInternal(payer, additional);\n\n        return (amount, additional);\n    }\n\n    function liquidateBorrow(address borrower, uint amount, MarketInterface collateralMarket) public {\n        require(amount > 0);\n        require(borrower != msg.sender);\n\n        accrueInterest();\n        collateralMarket.accrueInterest();\n\n        uint debt = updatedBorrowBy(borrower);\n\n        require(debt >= amount);\n        require(token.balanceOf(msg.sender) >= amount);\n\n        uint collateralAmount = controller.liquidateCollateral(borrower, msg.sender, amount, collateralMarket);\n\n        uint paid;\n        uint additional;\n\n        (paid, additional) = payBorrowInternal(msg.sender, borrower, amount);\n\n        emit LiquidateBorrow(borrower, paid, msg.sender, address(collateralMarket), collateralAmount);\n\n        if (additional > 0)\n            emit Supply(msg.sender, additional);\n    }\n\n    function transferTo(address sender, address receiver, uint amount) public onlyController {\n        require(amount > 0);\n        redeemInternal(sender, receiver, amount);\n    }\n}\n\n",
  "sourcePath": "/home/ronaldsg/IOV/rbank-js/dependencies/DeFiProt/contracts/Market.sol",
  "compiler": {
    "name": "solc",
    "version": "0.5.16+commit.9c3226ce.Emscripten.clang"
  },
  "schemaVersion": "3.1.0",
  "updatedAt": "2020-08-20T23:51:18.361Z",
  "devdoc": {
    "methods": {}
  },
  "userdoc": {
    "methods": {}
  }
}