{
  "contractName": "Controller",
  "abi": [
    {
      "inputs": [],
      "payable": false,
      "stateMutability": "nonpayable",
      "type": "constructor"
    },
    {
      "constant": true,
      "inputs": [],
      "name": "MANTISSA",
      "outputs": [
        {
          "internalType": "uint256",
          "name": "",
          "type": "uint256"
        }
      ],
      "payable": false,
      "stateMutability": "view",
      "type": "function"
    },
    {
      "constant": true,
      "inputs": [],
      "name": "collateralFactor",
      "outputs": [
        {
          "internalType": "uint256",
          "name": "",
          "type": "uint256"
        }
      ],
      "payable": false,
      "stateMutability": "view",
      "type": "function"
    },
    {
      "constant": true,
      "inputs": [],
      "name": "deployBlock",
      "outputs": [
        {
          "internalType": "uint256",
          "name": "",
          "type": "uint256"
        }
      ],
      "payable": false,
      "stateMutability": "view",
      "type": "function"
    },
    {
      "constant": true,
      "inputs": [],
      "name": "liquidationFactor",
      "outputs": [
        {
          "internalType": "uint256",
          "name": "",
          "type": "uint256"
        }
      ],
      "payable": false,
      "stateMutability": "view",
      "type": "function"
    },
    {
      "constant": true,
      "inputs": [
        {
          "internalType": "uint256",
          "name": "",
          "type": "uint256"
        }
      ],
      "name": "marketList",
      "outputs": [
        {
          "internalType": "address",
          "name": "",
          "type": "address"
        }
      ],
      "payable": false,
      "stateMutability": "view",
      "type": "function"
    },
    {
      "constant": true,
      "inputs": [
        {
          "internalType": "address",
          "name": "",
          "type": "address"
        }
      ],
      "name": "markets",
      "outputs": [
        {
          "internalType": "bool",
          "name": "",
          "type": "bool"
        }
      ],
      "payable": false,
      "stateMutability": "view",
      "type": "function"
    },
    {
      "constant": true,
      "inputs": [
        {
          "internalType": "address",
          "name": "",
          "type": "address"
        }
      ],
      "name": "marketsByToken",
      "outputs": [
        {
          "internalType": "address",
          "name": "",
          "type": "address"
        }
      ],
      "payable": false,
      "stateMutability": "view",
      "type": "function"
    },
    {
      "constant": true,
      "inputs": [],
      "name": "owner",
      "outputs": [
        {
          "internalType": "address",
          "name": "",
          "type": "address"
        }
      ],
      "payable": false,
      "stateMutability": "view",
      "type": "function"
    },
    {
      "constant": true,
      "inputs": [
        {
          "internalType": "address",
          "name": "",
          "type": "address"
        }
      ],
      "name": "prices",
      "outputs": [
        {
          "internalType": "uint256",
          "name": "",
          "type": "uint256"
        }
      ],
      "payable": false,
      "stateMutability": "view",
      "type": "function"
    },
    {
      "constant": true,
      "inputs": [],
      "name": "marketListSize",
      "outputs": [
        {
          "internalType": "uint256",
          "name": "",
          "type": "uint256"
        }
      ],
      "payable": false,
      "stateMutability": "view",
      "type": "function"
    },
    {
      "constant": false,
      "inputs": [
        {
          "internalType": "uint256",
          "name": "factor",
          "type": "uint256"
        }
      ],
      "name": "setCollateralFactor",
      "outputs": [],
      "payable": false,
      "stateMutability": "nonpayable",
      "type": "function"
    },
    {
      "constant": false,
      "inputs": [
        {
          "internalType": "uint256",
          "name": "factor",
          "type": "uint256"
        }
      ],
      "name": "setLiquidationFactor",
      "outputs": [],
      "payable": false,
      "stateMutability": "nonpayable",
      "type": "function"
    },
    {
      "constant": false,
      "inputs": [
        {
          "internalType": "address",
          "name": "market",
          "type": "address"
        },
        {
          "internalType": "uint256",
          "name": "price",
          "type": "uint256"
        }
      ],
      "name": "setPrice",
      "outputs": [],
      "payable": false,
      "stateMutability": "nonpayable",
      "type": "function"
    },
    {
      "constant": false,
      "inputs": [
        {
          "internalType": "address",
          "name": "market",
          "type": "address"
        }
      ],
      "name": "addMarket",
      "outputs": [],
      "payable": false,
      "stateMutability": "nonpayable",
      "type": "function"
    },
    {
      "constant": true,
      "inputs": [
        {
          "internalType": "address",
          "name": "account",
          "type": "address"
        }
      ],
      "name": "getAccountLiquidity",
      "outputs": [
        {
          "internalType": "uint256",
          "name": "",
          "type": "uint256"
        }
      ],
      "payable": false,
      "stateMutability": "view",
      "type": "function"
    },
    {
      "constant": true,
      "inputs": [
        {
          "internalType": "address",
          "name": "account",
          "type": "address"
        }
      ],
      "name": "getAccountHealth",
      "outputs": [
        {
          "internalType": "uint256",
          "name": "",
          "type": "uint256"
        }
      ],
      "payable": false,
      "stateMutability": "view",
      "type": "function"
    },
    {
      "constant": true,
      "inputs": [
        {
          "internalType": "address",
          "name": "account",
          "type": "address"
        }
      ],
      "name": "getAccountValues",
      "outputs": [
        {
          "internalType": "uint256",
          "name": "supplyValue",
          "type": "uint256"
        },
        {
          "internalType": "uint256",
          "name": "borrowValue",
          "type": "uint256"
        }
      ],
      "payable": false,
      "stateMutability": "view",
      "type": "function"
    },
    {
      "constant": false,
      "inputs": [
        {
          "internalType": "address",
          "name": "borrower",
          "type": "address"
        },
        {
          "internalType": "address",
          "name": "liquidator",
          "type": "address"
        },
        {
          "internalType": "uint256",
          "name": "amount",
          "type": "uint256"
        },
        {
          "internalType": "contract MarketInterface",
          "name": "collateralMarket",
          "type": "address"
        }
      ],
      "name": "liquidateCollateral",
      "outputs": [
        {
          "internalType": "uint256",
          "name": "collateralAmount",
          "type": "uint256"
        }
      ],
      "payable": false,
      "stateMutability": "nonpayable",
      "type": "function"
    }
  ],
  "bytecode": "0x608060405234801561001057600080fd5b50336000806101000a81548173ffffffffffffffffffffffffffffffffffffffff021916908373ffffffffffffffffffffffffffffffffffffffff160217905550436007819055506112d3806100676000396000f3fe608060405234801561001057600080fd5b50600436106101155760003560e01c80638da5cb5b116100a2578063b5c2215711610071578063b5c22157146104bf578063cfed246b146104ed578063df011c4114610545578063e1b08b2614610563578063e59e8018146105e757610115565b80638da5cb5b146103b75780638e8f294b1461040157806393e306331461045d578063a3ec191a146104a157610115565b80633baadca0116100e95780633baadca0146102125780633bb54d7e14610271578063405f10e1146103135780635ec88c79146103315780637c1914c31461038957610115565b8062e4768b1461011a578063232b956c146101685780632703984c146101d6578063352ade55146101f4575b600080fd5b6101666004803603604081101561013057600080fd5b81019080803573ffffffffffffffffffffffffffffffffffffffff1690602001909291908035906020019092919050505061063f565b005b6101946004803603602081101561017e57600080fd5b8101908080359060200190929190505050610736565b604051808273ffffffffffffffffffffffffffffffffffffffff1673ffffffffffffffffffffffffffffffffffffffff16815260200191505060405180910390f35b6101de610772565b6040518082815260200191505060405180910390f35b6101fc610779565b6040518082815260200191505060405180910390f35b6102546004803603602081101561022857600080fd5b81019080803573ffffffffffffffffffffffffffffffffffffffff16906020019092919050505061077f565b604051808381526020018281526020019250505060405180910390f35b6102fd6004803603608081101561028757600080fd5b81019080803573ffffffffffffffffffffffffffffffffffffffff169060200190929190803573ffffffffffffffffffffffffffffffffffffffff16906020019092919080359060200190929190803573ffffffffffffffffffffffffffffffffffffffff169060200190929190505050610a1d565b6040518082815260200191505060405180910390f35b61031b610cbd565b6040518082815260200191505060405180910390f35b6103736004803603602081101561034757600080fd5b81019080803573ffffffffffffffffffffffffffffffffffffffff169060200190929190505050610cca565b6040518082815260200191505060405180910390f35b6103b56004803603602081101561039f57600080fd5b8101908080359060200190929190505050610d52565b005b6103bf610db5565b604051808273ffffffffffffffffffffffffffffffffffffffff1673ffffffffffffffffffffffffffffffffffffffff16815260200191505060405180910390f35b6104436004803603602081101561041757600080fd5b81019080803573ffffffffffffffffffffffffffffffffffffffff169060200190929190505050610dda565b604051808215151515815260200191505060405180910390f35b61049f6004803603602081101561047357600080fd5b81019080803573ffffffffffffffffffffffffffffffffffffffff169060200190929190505050610dfa565b005b6104a96110af565b6040518082815260200191505060405180910390f35b6104eb600480360360208110156104d557600080fd5b81019080803590602001909291905050506110b5565b005b61052f6004803603602081101561050357600080fd5b81019080803573ffffffffffffffffffffffffffffffffffffffff169060200190929190505050611118565b6040518082815260200191505060405180910390f35b61054d611130565b6040518082815260200191505060405180910390f35b6105a56004803603602081101561057957600080fd5b81019080803573ffffffffffffffffffffffffffffffffffffffff169060200190929190505050611136565b604051808273ffffffffffffffffffffffffffffffffffffffff1673ffffffffffffffffffffffffffffffffffffffff16815260200191505060405180910390f35b610629600480360360208110156105fd57600080fd5b81019080803573ffffffffffffffffffffffffffffffffffffffff169060200190929190505050611169565b6040518082815260200191505060405180910390f35b6000809054906101000a900473ffffffffffffffffffffffffffffffffffffffff1673ffffffffffffffffffffffffffffffffffffffff163373ffffffffffffffffffffffffffffffffffffffff161461069857600080fd5b600160008373ffffffffffffffffffffffffffffffffffffffff1673ffffffffffffffffffffffffffffffffffffffff16815260200190815260200160002060009054906101000a900460ff166106ee57600080fd5b80600360008473ffffffffffffffffffffffffffffffffffffffff1673ffffffffffffffffffffffffffffffffffffffff168152602001908152602001600020819055505050565b6004818154811061074357fe5b906000526020600020016000915054906101000a900473ffffffffffffffffffffffffffffffffffffffff1681565b620f424081565b60065481565b60008060008090505b600480549050811015610a17576000600482815481106107a457fe5b9060005260206000200160009054906101000a900473ffffffffffffffffffffffffffffffffffffffff169050600060036000600485815481106107e457fe5b9060005260206000200160009054906101000a900473ffffffffffffffffffffffffffffffffffffffff1673ffffffffffffffffffffffffffffffffffffffff1673ffffffffffffffffffffffffffffffffffffffff168152602001908152602001600020549050610928610919828473ffffffffffffffffffffffffffffffffffffffff1663e681dc718a6040518263ffffffff1660e01b8152600401808273ffffffffffffffffffffffffffffffffffffffff1673ffffffffffffffffffffffffffffffffffffffff16815260200191505060206040518083038186803b1580156108d057600080fd5b505afa1580156108e4573d6000803e3d6000fd5b505050506040513d60208110156108fa57600080fd5b810190808051906020019092919050505061119290919063ffffffff16565b866111c690919063ffffffff16565b9450610a066109f7828473ffffffffffffffffffffffffffffffffffffffff16632aad6aa88a6040518263ffffffff1660e01b8152600401808273ffffffffffffffffffffffffffffffffffffffff1673ffffffffffffffffffffffffffffffffffffffff16815260200191505060206040518083038186803b1580156109ae57600080fd5b505afa1580156109c2573d6000803e3d6000fd5b505050506040513d60208110156109d857600080fd5b810190808051906020019092919050505061119290919063ffffffff16565b856111c690919063ffffffff16565b935050508080600101915050610788565b50915091565b6000600160003373ffffffffffffffffffffffffffffffffffffffff1673ffffffffffffffffffffffffffffffffffffffff16815260200190815260200160002060009054906101000a900460ff16610a7557600080fd5b6000600360003373ffffffffffffffffffffffffffffffffffffffff1673ffffffffffffffffffffffffffffffffffffffff16815260200190815260200160002054905060008111610ac657600080fd5b6000600360008573ffffffffffffffffffffffffffffffffffffffff1673ffffffffffffffffffffffffffffffffffffffff16815260200190815260200160002054905060008111610b1757600080fd5b600080610b238961077f565b809250819350505060008111610b3857600080fd5b6000610b4483836111e0565b9050620f4240811115610b5657600080fd5b6000610b6b868a61119290919063ffffffff16565b90506000610b9784610b89620f42408561119290919063ffffffff16565b61127390919063ffffffff16565b90506000610bc3620f4240610bb5848961119290919063ffffffff16565b61127390919063ffffffff16565b9050610bd8878261127390919063ffffffff16565b98508973ffffffffffffffffffffffffffffffffffffffff1663a5f2a1528e8e8c6040518463ffffffff1660e01b8152600401808473ffffffffffffffffffffffffffffffffffffffff1673ffffffffffffffffffffffffffffffffffffffff1681526020018373ffffffffffffffffffffffffffffffffffffffff1673ffffffffffffffffffffffffffffffffffffffff1681526020018281526020019350505050600060405180830381600087803b158015610c9557600080fd5b505af1158015610ca9573d6000803e3d6000fd5b505050505050505050505050949350505050565b6000600480549050905090565b60008060009050600080610cdd8561077f565b8092508193505050610d0f610d00620f42406005546111c690919063ffffffff16565b8261119290919063ffffffff16565b9050610d27620f42408261127390919063ffffffff16565b905081811015610d4757610d44818361128790919063ffffffff16565b92505b829350505050919050565b6000809054906101000a900473ffffffffffffffffffffffffffffffffffffffff1673ffffffffffffffffffffffffffffffffffffffff163373ffffffffffffffffffffffffffffffffffffffff1614610dab57600080fd5b8060068190555050565b6000809054906101000a900473ffffffffffffffffffffffffffffffffffffffff1681565b60016020528060005260406000206000915054906101000a900460ff1681565b6000809054906101000a900473ffffffffffffffffffffffffffffffffffffffff1673ffffffffffffffffffffffffffffffffffffffff163373ffffffffffffffffffffffffffffffffffffffff1614610e5357600080fd5b60008173ffffffffffffffffffffffffffffffffffffffff1663fc0c546a6040518163ffffffff1660e01b815260040160206040518083038186803b158015610e9b57600080fd5b505afa158015610eaf573d6000803e3d6000fd5b505050506040513d6020811015610ec557600080fd5b81019080805190602001909291905050509050600073ffffffffffffffffffffffffffffffffffffffff16600260008373ffffffffffffffffffffffffffffffffffffffff1673ffffffffffffffffffffffffffffffffffffffff16815260200190815260200160002060009054906101000a900473ffffffffffffffffffffffffffffffffffffffff1673ffffffffffffffffffffffffffffffffffffffff1614610f7057600080fd5b60018060008473ffffffffffffffffffffffffffffffffffffffff1673ffffffffffffffffffffffffffffffffffffffff16815260200190815260200160002060006101000a81548160ff02191690831515021790555081600260008373ffffffffffffffffffffffffffffffffffffffff1673ffffffffffffffffffffffffffffffffffffffff16815260200190815260200160002060006101000a81548173ffffffffffffffffffffffffffffffffffffffff021916908373ffffffffffffffffffffffffffffffffffffffff16021790555060048290806001815401808255809150509060018203906000526020600020016000909192909190916101000a81548173ffffffffffffffffffffffffffffffffffffffff021916908373ffffffffffffffffffffffffffffffffffffffff160217905550505050565b60075481565b6000809054906101000a900473ffffffffffffffffffffffffffffffffffffffff1673ffffffffffffffffffffffffffffffffffffffff163373ffffffffffffffffffffffffffffffffffffffff161461110e57600080fd5b8060058190555050565b60036020528060005260406000206000915090505481565b60055481565b60026020528060005260406000206000915054906101000a900473ffffffffffffffffffffffffffffffffffffffff1681565b60008060006111778461077f565b809250819350505061118982826111e0565b92505050919050565b6000808314156111a557600090506111c0565b8183029050818382816111b457fe5b04146111bc57fe5b8090505b92915050565b60008183019050828110156111d757fe5b80905092915050565b6000808314806111f05750600082145b156111fe576000905061126d565b611228611219620f42406006546111c690919063ffffffff16565b8361119290919063ffffffff16565b9150611240620f42408361127390919063ffffffff16565b915061126a8261125c620f42408661119290919063ffffffff16565b61127390919063ffffffff16565b90505b92915050565b600081838161127e57fe5b04905092915050565b60008282111561129357fe5b81830390509291505056fea265627a7a72315820f591ac78e333e45563dc74d34b7518d09aebc8fcd3ff213511053dd637a6546764736f6c63430005100032",
  "source": "pragma solidity >=0.5.0 <0.6.0;\n\nimport \"./MarketInterface.sol\";\nimport \"./test/SafeMath.sol\";\n\ncontract Controller {\n    using SafeMath for uint256;\n\n    address public owner;\n\n    mapping (address => bool) public markets;\n    mapping (address => address) public marketsByToken;\n    mapping (address => uint) public prices;\n\n    address[] public marketList;\n\n    uint public collateralFactor;\n    uint public liquidationFactor;\n    uint public constant MANTISSA = 1e6;\n    uint public deployBlock;\n\n    constructor() public {\n        owner = msg.sender;\n        deployBlock = block.number;\n    }\n\n    modifier onlyOwner() {\n        require(msg.sender == owner);\n        _;\n    }\n\n    modifier onlyMarket() {\n        require(markets[msg.sender]);\n        _;\n    }\n\n    function marketListSize() public view returns (uint) {\n      return marketList.length;\n    }\n\n    function setCollateralFactor(uint factor) public onlyOwner {\n        collateralFactor = factor;\n    }\n\n    function setLiquidationFactor(uint factor) public onlyOwner {\n        liquidationFactor = factor;\n    }\n\n    function setPrice(address market, uint price) public onlyOwner {\n        require(markets[market]);\n\n        prices[market] = price;\n    }\n\n    function addMarket(address market) public onlyOwner {\n        address marketToken = MarketInterface(market).token();\n        require(marketsByToken[marketToken] == address(0));\n        markets[market] = true;\n        marketsByToken[marketToken] = market;\n        marketList.push(market);\n    }\n\n    function getAccountLiquidity(address account) public view returns (uint) {\n        uint liquidity = 0;\n\n        uint supplyValue;\n        uint borrowValue;\n\n        (supplyValue, borrowValue) = getAccountValues(account);\n\n        borrowValue = borrowValue.mul(collateralFactor.add(MANTISSA));\n        borrowValue = borrowValue.div(MANTISSA);\n\n        if (borrowValue < supplyValue)\n            liquidity = supplyValue.sub(borrowValue);\n\n        return liquidity;\n    }\n\n    function getAccountHealth(address account) public view returns (uint) {\n        uint supplyValue;\n        uint borrowValue;\n\n        (supplyValue, borrowValue) = getAccountValues(account);\n\n        return calculateHealthIndex(supplyValue, borrowValue);\n    }\n\n    function calculateHealthIndex(uint supplyValue, uint borrowValue) internal view returns (uint) {\n        if (supplyValue == 0 || borrowValue == 0)\n            return 0;\n\n        borrowValue = borrowValue.mul(liquidationFactor.add(MANTISSA));\n        borrowValue = borrowValue.div(MANTISSA);\n\n        return supplyValue.mul(MANTISSA).div(borrowValue);\n    }\n\n    function getAccountValues(address account) public view returns (uint supplyValue, uint borrowValue) {\n        for (uint k = 0; k < marketList.length; k++) {\n            MarketInterface market = MarketInterface(marketList[k]);\n            uint price = prices[marketList[k]];\n\n            supplyValue = supplyValue.add(market.updatedSupplyOf(account).mul(price));\n            borrowValue = borrowValue.add(market.updatedBorrowBy(account).mul(price));\n        }\n    }\n\n    function liquidateCollateral(address borrower, address liquidator, uint amount, MarketInterface collateralMarket) public onlyMarket returns (uint collateralAmount)  {\n        uint price = prices[msg.sender];\n        require(price > 0);\n\n        uint collateralPrice = prices[address(collateralMarket)];\n        require(collateralPrice > 0);\n\n        uint supplyValue;\n        uint borrowValue;\n\n        (supplyValue, borrowValue) = getAccountValues(borrower);\n        require(borrowValue > 0);\n\n        uint healthIndex = calculateHealthIndex(supplyValue, borrowValue);\n\n        require(healthIndex <= MANTISSA);\n\n        uint liquidationValue = amount.mul(price);\n        uint liquidationPercentage = liquidationValue.mul(MANTISSA).div(borrowValue);\n        uint collateralValue = supplyValue.mul(liquidationPercentage).div(MANTISSA);\n\n        collateralAmount = collateralValue.div(collateralPrice);\n\n        collateralMarket.transferTo(borrower, liquidator, collateralAmount);\n    }\n}\n\n",
  "sourcePath": "/home/ronaldsg/IOV/rbank-js/dependencies/DeFiProt/contracts/Controller.sol",
  "compiler": {
    "name": "solc",
    "version": "0.5.16+commit.9c3226ce.Emscripten.clang"
  },
  "schemaVersion": "3.1.0",
  "updatedAt": "2020-09-21T15:21:27.943Z",
  "devdoc": {
    "methods": {}
  },
  "userdoc": {
    "methods": {}
  }
}