{
  "contractName": "Controller",
  "abi": [
    {
      "inputs": [],
      "payable": false,
      "stateMutability": "nonpayable",
      "type": "constructor"
    },
    {
      "constant": true,
      "inputs": [],
      "name": "MANTISSA",
      "outputs": [
        {
          "internalType": "uint256",
          "name": "",
          "type": "uint256"
        }
      ],
      "payable": false,
      "stateMutability": "view",
      "type": "function"
    },
    {
      "constant": true,
      "inputs": [],
      "name": "collateralFactor",
      "outputs": [
        {
          "internalType": "uint256",
          "name": "",
          "type": "uint256"
        }
      ],
      "payable": false,
      "stateMutability": "view",
      "type": "function"
    },
    {
      "constant": true,
      "inputs": [],
      "name": "liquidationFactor",
      "outputs": [
        {
          "internalType": "uint256",
          "name": "",
          "type": "uint256"
        }
      ],
      "payable": false,
      "stateMutability": "view",
      "type": "function"
    },
    {
      "constant": true,
      "inputs": [
        {
          "internalType": "uint256",
          "name": "",
          "type": "uint256"
        }
      ],
      "name": "marketList",
      "outputs": [
        {
          "internalType": "address",
          "name": "",
          "type": "address"
        }
      ],
      "payable": false,
      "stateMutability": "view",
      "type": "function"
    },
    {
      "constant": true,
      "inputs": [
        {
          "internalType": "address",
          "name": "",
          "type": "address"
        }
      ],
      "name": "markets",
      "outputs": [
        {
          "internalType": "bool",
          "name": "",
          "type": "bool"
        }
      ],
      "payable": false,
      "stateMutability": "view",
      "type": "function"
    },
    {
      "constant": true,
      "inputs": [
        {
          "internalType": "address",
          "name": "",
          "type": "address"
        }
      ],
      "name": "marketsByToken",
      "outputs": [
        {
          "internalType": "address",
          "name": "",
          "type": "address"
        }
      ],
      "payable": false,
      "stateMutability": "view",
      "type": "function"
    },
    {
      "constant": true,
      "inputs": [],
      "name": "owner",
      "outputs": [
        {
          "internalType": "address",
          "name": "",
          "type": "address"
        }
      ],
      "payable": false,
      "stateMutability": "view",
      "type": "function"
    },
    {
      "constant": true,
      "inputs": [
        {
          "internalType": "address",
          "name": "",
          "type": "address"
        }
      ],
      "name": "prices",
      "outputs": [
        {
          "internalType": "uint256",
          "name": "",
          "type": "uint256"
        }
      ],
      "payable": false,
      "stateMutability": "view",
      "type": "function"
    },
    {
      "constant": true,
      "inputs": [],
      "name": "marketListSize",
      "outputs": [
        {
          "internalType": "uint256",
          "name": "",
          "type": "uint256"
        }
      ],
      "payable": false,
      "stateMutability": "view",
      "type": "function"
    },
    {
      "constant": false,
      "inputs": [
        {
          "internalType": "uint256",
          "name": "factor",
          "type": "uint256"
        }
      ],
      "name": "setCollateralFactor",
      "outputs": [],
      "payable": false,
      "stateMutability": "nonpayable",
      "type": "function"
    },
    {
      "constant": false,
      "inputs": [
        {
          "internalType": "uint256",
          "name": "factor",
          "type": "uint256"
        }
      ],
      "name": "setLiquidationFactor",
      "outputs": [],
      "payable": false,
      "stateMutability": "nonpayable",
      "type": "function"
    },
    {
      "constant": false,
      "inputs": [
        {
          "internalType": "address",
          "name": "market",
          "type": "address"
        },
        {
          "internalType": "uint256",
          "name": "price",
          "type": "uint256"
        }
      ],
      "name": "setPrice",
      "outputs": [],
      "payable": false,
      "stateMutability": "nonpayable",
      "type": "function"
    },
    {
      "constant": false,
      "inputs": [
        {
          "internalType": "address",
          "name": "market",
          "type": "address"
        }
      ],
      "name": "addMarket",
      "outputs": [],
      "payable": false,
      "stateMutability": "nonpayable",
      "type": "function"
    },
    {
      "constant": true,
      "inputs": [
        {
          "internalType": "address",
          "name": "account",
          "type": "address"
        }
      ],
      "name": "getAccountLiquidity",
      "outputs": [
        {
          "internalType": "uint256",
          "name": "",
          "type": "uint256"
        }
      ],
      "payable": false,
      "stateMutability": "view",
      "type": "function"
    },
    {
      "constant": true,
      "inputs": [
        {
          "internalType": "address",
          "name": "account",
          "type": "address"
        }
      ],
      "name": "getAccountHealth",
      "outputs": [
        {
          "internalType": "uint256",
          "name": "",
          "type": "uint256"
        }
      ],
      "payable": false,
      "stateMutability": "view",
      "type": "function"
    },
    {
      "constant": true,
      "inputs": [
        {
          "internalType": "address",
          "name": "account",
          "type": "address"
        }
      ],
      "name": "getAccountValues",
      "outputs": [
        {
          "internalType": "uint256",
          "name": "supplyValue",
          "type": "uint256"
        },
        {
          "internalType": "uint256",
          "name": "borrowValue",
          "type": "uint256"
        }
      ],
      "payable": false,
      "stateMutability": "view",
      "type": "function"
    },
    {
      "constant": false,
      "inputs": [
        {
          "internalType": "address",
          "name": "borrower",
          "type": "address"
        },
        {
          "internalType": "address",
          "name": "liquidator",
          "type": "address"
        },
        {
          "internalType": "uint256",
          "name": "amount",
          "type": "uint256"
        },
        {
          "internalType": "contract MarketInterface",
          "name": "collateralMarket",
          "type": "address"
        }
      ],
      "name": "liquidateCollateral",
      "outputs": [
        {
          "internalType": "uint256",
          "name": "collateralAmount",
          "type": "uint256"
        }
      ],
      "payable": false,
      "stateMutability": "nonpayable",
      "type": "function"
    }
  ],
  "bytecode": "0x608060405234801561001057600080fd5b50336000806101000a81548173ffffffffffffffffffffffffffffffffffffffff021916908373ffffffffffffffffffffffffffffffffffffffff1602179055506112a4806100606000396000f3fe608060405234801561001057600080fd5b506004361061010a5760003560e01c80637c1914c3116100a2578063b5c2215711610071578063b5c2215714610496578063cfed246b146104c4578063df011c411461051c578063e1b08b261461053a578063e59e8018146105be5761010a565b80637c1914c31461037e5780638da5cb5b146103ac5780638e8f294b146103f657806393e30633146104525761010a565b80633baadca0116100de5780633baadca0146102075780633bb54d7e14610266578063405f10e1146103085780635ec88c79146103265761010a565b8062e4768b1461010f578063232b956c1461015d5780632703984c146101cb578063352ade55146101e9575b600080fd5b61015b6004803603604081101561012557600080fd5b81019080803573ffffffffffffffffffffffffffffffffffffffff16906020019092919080359060200190929190505050610616565b005b6101896004803603602081101561017357600080fd5b810190808035906020019092919050505061070d565b604051808273ffffffffffffffffffffffffffffffffffffffff1673ffffffffffffffffffffffffffffffffffffffff16815260200191505060405180910390f35b6101d3610749565b6040518082815260200191505060405180910390f35b6101f1610750565b6040518082815260200191505060405180910390f35b6102496004803603602081101561021d57600080fd5b81019080803573ffffffffffffffffffffffffffffffffffffffff169060200190929190505050610756565b604051808381526020018281526020019250505060405180910390f35b6102f26004803603608081101561027c57600080fd5b81019080803573ffffffffffffffffffffffffffffffffffffffff169060200190929190803573ffffffffffffffffffffffffffffffffffffffff16906020019092919080359060200190929190803573ffffffffffffffffffffffffffffffffffffffff1690602001909291905050506109f4565b6040518082815260200191505060405180910390f35b610310610c94565b6040518082815260200191505060405180910390f35b6103686004803603602081101561033c57600080fd5b81019080803573ffffffffffffffffffffffffffffffffffffffff169060200190929190505050610ca1565b6040518082815260200191505060405180910390f35b6103aa6004803603602081101561039457600080fd5b8101908080359060200190929190505050610d29565b005b6103b4610d8c565b604051808273ffffffffffffffffffffffffffffffffffffffff1673ffffffffffffffffffffffffffffffffffffffff16815260200191505060405180910390f35b6104386004803603602081101561040c57600080fd5b81019080803573ffffffffffffffffffffffffffffffffffffffff169060200190929190505050610db1565b604051808215151515815260200191505060405180910390f35b6104946004803603602081101561046857600080fd5b81019080803573ffffffffffffffffffffffffffffffffffffffff169060200190929190505050610dd1565b005b6104c2600480360360208110156104ac57600080fd5b8101908080359060200190929190505050611086565b005b610506600480360360208110156104da57600080fd5b81019080803573ffffffffffffffffffffffffffffffffffffffff1690602001909291905050506110e9565b6040518082815260200191505060405180910390f35b610524611101565b6040518082815260200191505060405180910390f35b61057c6004803603602081101561055057600080fd5b81019080803573ffffffffffffffffffffffffffffffffffffffff169060200190929190505050611107565b604051808273ffffffffffffffffffffffffffffffffffffffff1673ffffffffffffffffffffffffffffffffffffffff16815260200191505060405180910390f35b610600600480360360208110156105d457600080fd5b81019080803573ffffffffffffffffffffffffffffffffffffffff16906020019092919050505061113a565b6040518082815260200191505060405180910390f35b6000809054906101000a900473ffffffffffffffffffffffffffffffffffffffff1673ffffffffffffffffffffffffffffffffffffffff163373ffffffffffffffffffffffffffffffffffffffff161461066f57600080fd5b600160008373ffffffffffffffffffffffffffffffffffffffff1673ffffffffffffffffffffffffffffffffffffffff16815260200190815260200160002060009054906101000a900460ff166106c557600080fd5b80600360008473ffffffffffffffffffffffffffffffffffffffff1673ffffffffffffffffffffffffffffffffffffffff168152602001908152602001600020819055505050565b6004818154811061071a57fe5b906000526020600020016000915054906101000a900473ffffffffffffffffffffffffffffffffffffffff1681565b620f424081565b60065481565b60008060008090505b6004805490508110156109ee5760006004828154811061077b57fe5b9060005260206000200160009054906101000a900473ffffffffffffffffffffffffffffffffffffffff169050600060036000600485815481106107bb57fe5b9060005260206000200160009054906101000a900473ffffffffffffffffffffffffffffffffffffffff1673ffffffffffffffffffffffffffffffffffffffff1673ffffffffffffffffffffffffffffffffffffffff1681526020019081526020016000205490506108ff6108f0828473ffffffffffffffffffffffffffffffffffffffff1663e681dc718a6040518263ffffffff1660e01b8152600401808273ffffffffffffffffffffffffffffffffffffffff1673ffffffffffffffffffffffffffffffffffffffff16815260200191505060206040518083038186803b1580156108a757600080fd5b505afa1580156108bb573d6000803e3d6000fd5b505050506040513d60208110156108d157600080fd5b810190808051906020019092919050505061116390919063ffffffff16565b8661119790919063ffffffff16565b94506109dd6109ce828473ffffffffffffffffffffffffffffffffffffffff16632aad6aa88a6040518263ffffffff1660e01b8152600401808273ffffffffffffffffffffffffffffffffffffffff1673ffffffffffffffffffffffffffffffffffffffff16815260200191505060206040518083038186803b15801561098557600080fd5b505afa158015610999573d6000803e3d6000fd5b505050506040513d60208110156109af57600080fd5b810190808051906020019092919050505061116390919063ffffffff16565b8561119790919063ffffffff16565b93505050808060010191505061075f565b50915091565b6000600160003373ffffffffffffffffffffffffffffffffffffffff1673ffffffffffffffffffffffffffffffffffffffff16815260200190815260200160002060009054906101000a900460ff16610a4c57600080fd5b6000600360003373ffffffffffffffffffffffffffffffffffffffff1673ffffffffffffffffffffffffffffffffffffffff16815260200190815260200160002054905060008111610a9d57600080fd5b6000600360008573ffffffffffffffffffffffffffffffffffffffff1673ffffffffffffffffffffffffffffffffffffffff16815260200190815260200160002054905060008111610aee57600080fd5b600080610afa89610756565b809250819350505060008111610b0f57600080fd5b6000610b1b83836111b1565b9050620f4240811115610b2d57600080fd5b6000610b42868a61116390919063ffffffff16565b90506000610b6e84610b60620f42408561116390919063ffffffff16565b61124490919063ffffffff16565b90506000610b9a620f4240610b8c848961116390919063ffffffff16565b61124490919063ffffffff16565b9050610baf878261124490919063ffffffff16565b98508973ffffffffffffffffffffffffffffffffffffffff1663a5f2a1528e8e8c6040518463ffffffff1660e01b8152600401808473ffffffffffffffffffffffffffffffffffffffff1673ffffffffffffffffffffffffffffffffffffffff1681526020018373ffffffffffffffffffffffffffffffffffffffff1673ffffffffffffffffffffffffffffffffffffffff1681526020018281526020019350505050600060405180830381600087803b158015610c6c57600080fd5b505af1158015610c80573d6000803e3d6000fd5b505050505050505050505050949350505050565b6000600480549050905090565b60008060009050600080610cb485610756565b8092508193505050610ce6610cd7620f424060055461119790919063ffffffff16565b8261116390919063ffffffff16565b9050610cfe620f42408261124490919063ffffffff16565b905081811015610d1e57610d1b818361125890919063ffffffff16565b92505b829350505050919050565b6000809054906101000a900473ffffffffffffffffffffffffffffffffffffffff1673ffffffffffffffffffffffffffffffffffffffff163373ffffffffffffffffffffffffffffffffffffffff1614610d8257600080fd5b8060068190555050565b6000809054906101000a900473ffffffffffffffffffffffffffffffffffffffff1681565b60016020528060005260406000206000915054906101000a900460ff1681565b6000809054906101000a900473ffffffffffffffffffffffffffffffffffffffff1673ffffffffffffffffffffffffffffffffffffffff163373ffffffffffffffffffffffffffffffffffffffff1614610e2a57600080fd5b60008173ffffffffffffffffffffffffffffffffffffffff1663fc0c546a6040518163ffffffff1660e01b815260040160206040518083038186803b158015610e7257600080fd5b505afa158015610e86573d6000803e3d6000fd5b505050506040513d6020811015610e9c57600080fd5b81019080805190602001909291905050509050600073ffffffffffffffffffffffffffffffffffffffff16600260008373ffffffffffffffffffffffffffffffffffffffff1673ffffffffffffffffffffffffffffffffffffffff16815260200190815260200160002060009054906101000a900473ffffffffffffffffffffffffffffffffffffffff1673ffffffffffffffffffffffffffffffffffffffff1614610f4757600080fd5b60018060008473ffffffffffffffffffffffffffffffffffffffff1673ffffffffffffffffffffffffffffffffffffffff16815260200190815260200160002060006101000a81548160ff02191690831515021790555081600260008373ffffffffffffffffffffffffffffffffffffffff1673ffffffffffffffffffffffffffffffffffffffff16815260200190815260200160002060006101000a81548173ffffffffffffffffffffffffffffffffffffffff021916908373ffffffffffffffffffffffffffffffffffffffff16021790555060048290806001815401808255809150509060018203906000526020600020016000909192909190916101000a81548173ffffffffffffffffffffffffffffffffffffffff021916908373ffffffffffffffffffffffffffffffffffffffff160217905550505050565b6000809054906101000a900473ffffffffffffffffffffffffffffffffffffffff1673ffffffffffffffffffffffffffffffffffffffff163373ffffffffffffffffffffffffffffffffffffffff16146110df57600080fd5b8060058190555050565b60036020528060005260406000206000915090505481565b60055481565b60026020528060005260406000206000915054906101000a900473ffffffffffffffffffffffffffffffffffffffff1681565b600080600061114884610756565b809250819350505061115a82826111b1565b92505050919050565b6000808314156111765760009050611191565b81830290508183828161118557fe5b041461118d57fe5b8090505b92915050565b60008183019050828110156111a857fe5b80905092915050565b6000808314806111c15750600082145b156111cf576000905061123e565b6111f96111ea620f424060065461119790919063ffffffff16565b8361116390919063ffffffff16565b9150611211620f42408361124490919063ffffffff16565b915061123b8261122d620f42408661116390919063ffffffff16565b61124490919063ffffffff16565b90505b92915050565b600081838161124f57fe5b04905092915050565b60008282111561126457fe5b81830390509291505056fea265627a7a7231582083c4ca11de57561109e73660587e532ee65c7fe46cf69a4b8c4c7c83e155f8c064736f6c63430005100032",
  "source": "pragma solidity >=0.5.0 <0.6.0;\n\nimport \"./MarketInterface.sol\";\nimport \"./test/SafeMath.sol\";\n\ncontract Controller {\n    using SafeMath for uint256;\n\n    address public owner;\n\n    mapping (address => bool) public markets;\n    mapping (address => address) public marketsByToken;\n    mapping (address => uint) public prices;\n\n    address[] public marketList;\n\n    uint public collateralFactor;\n    uint public liquidationFactor;\n    uint public constant MANTISSA = 1e6;\n\n    constructor() public {\n        owner = msg.sender;\n    }\n\n    modifier onlyOwner() {\n        require(msg.sender == owner);\n        _;\n    }\n\n    modifier onlyMarket() {\n        require(markets[msg.sender]);\n        _;\n    }\n\n    function marketListSize() public view returns (uint) {\n      return marketList.length;\n    }\n\n    function setCollateralFactor(uint factor) public onlyOwner {\n        collateralFactor = factor;\n    }\n\n    function setLiquidationFactor(uint factor) public onlyOwner {\n        liquidationFactor = factor;\n    }\n\n    function setPrice(address market, uint price) public onlyOwner {\n        require(markets[market]);\n\n        prices[market] = price;\n    }\n\n    function addMarket(address market) public onlyOwner {\n        address marketToken = MarketInterface(market).token();\n        require(marketsByToken[marketToken] == address(0));\n        markets[market] = true;\n        marketsByToken[marketToken] = market;\n        marketList.push(market);\n    }\n\n    function getAccountLiquidity(address account) public view returns (uint) {\n        uint liquidity = 0;\n\n        uint supplyValue;\n        uint borrowValue;\n\n        (supplyValue, borrowValue) = getAccountValues(account);\n\n        borrowValue = borrowValue.mul(collateralFactor.add(MANTISSA));\n        borrowValue = borrowValue.div(MANTISSA);\n\n        if (borrowValue < supplyValue)\n            liquidity = supplyValue.sub(borrowValue);\n\n        return liquidity;\n    }\n\n    function getAccountHealth(address account) public view returns (uint) {\n        uint supplyValue;\n        uint borrowValue;\n\n        (supplyValue, borrowValue) = getAccountValues(account);\n\n        return calculateHealthIndex(supplyValue, borrowValue);\n    }\n    \n    function calculateHealthIndex(uint supplyValue, uint borrowValue) internal view returns (uint) {\n        if (supplyValue == 0 || borrowValue == 0)\n            return 0;\n\n        borrowValue = borrowValue.mul(liquidationFactor.add(MANTISSA));\n        borrowValue = borrowValue.div(MANTISSA);\n        \n        return supplyValue.mul(MANTISSA).div(borrowValue);\n    }\n\n    function getAccountValues(address account) public view returns (uint supplyValue, uint borrowValue) {\n        for (uint k = 0; k < marketList.length; k++) {\n            MarketInterface market = MarketInterface(marketList[k]);\n            uint price = prices[marketList[k]];\n            \n            supplyValue = supplyValue.add(market.updatedSupplyOf(account).mul(price));\n            borrowValue = borrowValue.add(market.updatedBorrowBy(account).mul(price));\n        }\n    }\n    \n    function liquidateCollateral(address borrower, address liquidator, uint amount, MarketInterface collateralMarket) public onlyMarket returns (uint collateralAmount)  {\n        uint price = prices[msg.sender];        \n        require(price > 0);\n\n        uint collateralPrice = prices[address(collateralMarket)];        \n        require(collateralPrice > 0);\n        \n        uint supplyValue;\n        uint borrowValue;\n\n        (supplyValue, borrowValue) = getAccountValues(borrower);\n        require(borrowValue > 0);\n        \n        uint healthIndex = calculateHealthIndex(supplyValue, borrowValue);\n        \n        require(healthIndex <= MANTISSA);\n        \n        uint liquidationValue = amount.mul(price);\n        uint liquidationPercentage = liquidationValue.mul(MANTISSA).div(borrowValue);\n        uint collateralValue = supplyValue.mul(liquidationPercentage).div(MANTISSA);\n        \n        collateralAmount = collateralValue.div(collateralPrice);\n        \n        collateralMarket.transferTo(borrower, liquidator, collateralAmount);\n    }\n}\n\n",
  "sourcePath": "/home/ronaldsg/IOV/rbank-js/dependencies/DeFiProt/contracts/Controller.sol",
  "compiler": {
    "name": "solc",
    "version": "0.5.16+commit.9c3226ce.Emscripten.clang"
  },
  "schemaVersion": "3.1.0",
  "updatedAt": "2020-08-20T23:51:18.349Z",
  "devdoc": {
    "methods": {}
  },
  "userdoc": {
    "methods": {}
  }
}